{
  "_format": "hh-sol-artifact-1",
  "contractName": "FundPool",
  "sourceName": "src/FundPool.sol",
  "abi": [
    {
      "inputs": [
        {
          "internalType": "address",
          "name": "_stablecoin",
          "type": "address"
        }
      ],
      "stateMutability": "nonpayable",
      "type": "constructor"
    },
    {
      "anonymous": false,
      "inputs": [
        {
          "indexed": true,
          "internalType": "address",
          "name": "to",
          "type": "address"
        },
        {
          "indexed": false,
          "internalType": "uint256",
          "name": "amount",
          "type": "uint256"
        }
      ],
      "name": "EmergencyWithdrawal",
      "type": "event"
    },
    {
      "anonymous": false,
      "inputs": [
        {
          "indexed": true,
          "internalType": "address",
          "name": "depositor",
          "type": "address"
        },
        {
          "indexed": false,
          "internalType": "uint256",
          "name": "amount",
          "type": "uint256"
        },
        {
          "indexed": false,
          "internalType": "bytes32",
          "name": "swapTxHash",
          "type": "bytes32"
        }
      ],
      "name": "FundsDeposited",
      "type": "event"
    },
    {
      "anonymous": false,
      "inputs": [
        {
          "indexed": true,
          "internalType": "uint256",
          "name": "requestId",
          "type": "uint256"
        },
        {
          "indexed": false,
          "internalType": "uint256",
          "name": "amount",
          "type": "uint256"
        }
      ],
      "name": "FundsEscrowed",
      "type": "event"
    },
    {
      "anonymous": false,
      "inputs": [
        {
          "indexed": true,
          "internalType": "address",
          "name": "recipient",
          "type": "address"
        },
        {
          "indexed": false,
          "internalType": "uint256",
          "name": "amount",
          "type": "uint256"
        }
      ],
      "name": "FundsReleased",
      "type": "event"
    },
    {
      "anonymous": false,
      "inputs": [
        {
          "indexed": false,
          "internalType": "uint256",
          "name": "amount",
          "type": "uint256"
        }
      ],
      "name": "FundsReturned",
      "type": "event"
    },
    {
      "inputs": [],
      "name": "aidChainContract",
      "outputs": [
        {
          "internalType": "address",
          "name": "",
          "type": "address"
        }
      ],
      "stateMutability": "view",
      "type": "function"
    },
    {
      "inputs": [],
      "name": "availableBalance",
      "outputs": [
        {
          "internalType": "uint256",
          "name": "",
          "type": "uint256"
        }
      ],
      "stateMutability": "view",
      "type": "function"
    },
    {
      "inputs": [
        {
          "internalType": "uint256",
          "name": "amount",
          "type": "uint256"
        },
        {
          "internalType": "bytes32",
          "name": "swapTxHash",
          "type": "bytes32"
        }
      ],
      "name": "deposit",
      "outputs": [],
      "stateMutability": "nonpayable",
      "type": "function"
    },
    {
      "inputs": [
        {
          "internalType": "uint256",
          "name": "",
          "type": "uint256"
        }
      ],
      "name": "deposits",
      "outputs": [
        {
          "internalType": "address",
          "name": "depositor",
          "type": "address"
        },
        {
          "internalType": "uint256",
          "name": "amount",
          "type": "uint256"
        },
        {
          "internalType": "uint256",
          "name": "timestamp",
          "type": "uint256"
        },
        {
          "internalType": "bytes32",
          "name": "swapTxHash",
          "type": "bytes32"
        }
      ],
      "stateMutability": "view",
      "type": "function"
    },
    {
      "inputs": [
        {
          "internalType": "address",
          "name": "to",
          "type": "address"
        }
      ],
      "name": "emergencyWithdraw",
      "outputs": [],
      "stateMutability": "nonpayable",
      "type": "function"
    },
    {
      "inputs": [
        {
          "internalType": "uint256",
          "name": "requestId",
          "type": "uint256"
        },
        {
          "internalType": "uint256",
          "name": "amount",
          "type": "uint256"
        }
      ],
      "name": "escrowForRequest",
      "outputs": [],
      "stateMutability": "nonpayable",
      "type": "function"
    },
    {
      "inputs": [],
      "name": "getDepositCount",
      "outputs": [
        {
          "internalType": "uint256",
          "name": "",
          "type": "uint256"
        }
      ],
      "stateMutability": "view",
      "type": "function"
    },
    {
      "inputs": [],
      "name": "getPoolStats",
      "outputs": [
        {
          "internalType": "uint256",
          "name": "_totalDeposited",
          "type": "uint256"
        },
        {
          "internalType": "uint256",
          "name": "_totalEscrowed",
          "type": "uint256"
        },
        {
          "internalType": "uint256",
          "name": "_totalPaidOut",
          "type": "uint256"
        },
        {
          "internalType": "uint256",
          "name": "_availableBalance",
          "type": "uint256"
        }
      ],
      "stateMutability": "view",
      "type": "function"
    },
    {
      "inputs": [],
      "name": "owner",
      "outputs": [
        {
          "internalType": "address",
          "name": "",
          "type": "address"
        }
      ],
      "stateMutability": "view",
      "type": "function"
    },
    {
      "inputs": [
        {
          "internalType": "address",
          "name": "recipient",
          "type": "address"
        },
        {
          "internalType": "uint256",
          "name": "amount",
          "type": "uint256"
        }
      ],
      "name": "releaseTo",
      "outputs": [],
      "stateMutability": "nonpayable",
      "type": "function"
    },
    {
      "inputs": [
        {
          "internalType": "uint256",
          "name": "",
          "type": "uint256"
        }
      ],
      "name": "requestEscrow",
      "outputs": [
        {
          "internalType": "uint256",
          "name": "",
          "type": "uint256"
        }
      ],
      "stateMutability": "view",
      "type": "function"
    },
    {
      "inputs": [
        {
          "internalType": "uint256",
          "name": "amount",
          "type": "uint256"
        }
      ],
      "name": "returnToPool",
      "outputs": [],
      "stateMutability": "nonpayable",
      "type": "function"
    },
    {
      "inputs": [
        {
          "internalType": "address",
          "name": "_aidChain",
          "type": "address"
        }
      ],
      "name": "setAidChainContract",
      "outputs": [],
      "stateMutability": "nonpayable",
      "type": "function"
    },
    {
      "inputs": [],
      "name": "stablecoin",
      "outputs": [
        {
          "internalType": "contract IERC20",
          "name": "",
          "type": "address"
        }
      ],
      "stateMutability": "view",
      "type": "function"
    },
    {
      "inputs": [],
      "name": "totalDeposited",
      "outputs": [
        {
          "internalType": "uint256",
          "name": "",
          "type": "uint256"
        }
      ],
      "stateMutability": "view",
      "type": "function"
    },
    {
      "inputs": [],
      "name": "totalEscrowed",
      "outputs": [
        {
          "internalType": "uint256",
          "name": "",
          "type": "uint256"
        }
      ],
      "stateMutability": "view",
      "type": "function"
    },
    {
      "inputs": [],
      "name": "totalPaidOut",
      "outputs": [
        {
          "internalType": "uint256",
          "name": "",
          "type": "uint256"
        }
      ],
      "stateMutability": "view",
      "type": "function"
    }
  ],
  "bytecode": "0x60803461007a57601f610b5c38819003918201601f19168301916001600160401b0383118484101761007f5780849260209460405283398101031261007a57516001600160a01b0381169081900361007a5760018060a01b0319338160005416176000556002541617600255604051610ac690816100968239f35b600080fd5b634e487b7160e01b600052604160045260246000fdfe608060408181526004918236101561001657600080fd5b600092833560e01c9182631357e1dc146108b65750816329ba84891461088d578163493f42161461083e5781634e06bad11461073b5781636ff1c9bc146106065781638da5cb5b146105de5781639363a141146105bf578163ab2f0e51146105a0578163b02c43d014610540578163b89b8764146104bf578163bbb8518814610486578163c448990314610364578163c9630cb014610174578163e9cbd8221461014b578163eeb3088914610123578163f916823114610101575063ff50abdc146100e057600080fd5b346100fd57816003193601126100fd576020906003549051908152f35b5080fd5b90503461011f578260031936011261011f5760209250549051908152f35b8280fd5b90503461011f57602036600319011261011f5760209282913581526007845220549051908152f35b5050346100fd57816003193601126100fd5760025490516001600160a01b039091168152602090f35b8383346100fd57806003193601126100fd57823590602493843590831561032a5760025483516323b872dd60e01b815233838201523088820152604481018690526001600160a01b0391602090829060649082908b9087165af18015610320576102f1575b506101e685600354610a33565b6003556101f585600654610a33565b6006558351906080820182811067ffffffffffffffff8211176102df5785523382526020820190868252858301924284526060810199868b52600854680100000000000000008110156102cd5780600161025292016008556108ed565b9690966102bd57505091600393917f8bf712d877d83c45f97b89c8745bcaacf8ea194eeb7e370d4d834678ae7ca0a998999a9351166bffffffffffffffffffffffff60a01b86541617855551600185015551600284015551910155815193845260208401523392a280f35b634e487b7160e01b8b528a905289fd5b50634e487b7160e01b8a526041865289fd5b634e487b7160e01b8852604184528888fd5b6103129060203d602011610319575b61030a8183610a40565b810190610a78565b50876101d9565b503d610300565b85513d89823e3d90fd5b606490601587602086519362461bcd60e51b855284015282015274119d5b99141bdbdb0e881e995c9bc8185b5bdd5b9d605a1b6044820152fd5b90503461011f578160031936011261011f578035916024359161039260018060a01b0360015416331461097f565b60065483811061044357848652600760205282862054610400579183916103dc7f06b740c734bbcd0a75866d82c066bc234cde7aa1ad6da3d327008f89d461d2ed95602095610a10565b6006556103ea838254610a33565b905584865260078352818187205551908152a280f35b506020606492519162461bcd60e51b8352820152601a60248201527f46756e64506f6f6c3a20616c726561647920657363726f7765640000000000006044820152fd5b506020606492519162461bcd60e51b8352820152601c60248201527f46756e64506f6f6c3a20696e73756666696369656e742066756e6473000000006044820152fd5b9190503461011f578260031936011261011f57608092506003549154906005549060065492815194855260208501528301526060820152f35b9190503461011f57602036600319011261011f57816020917f278e51d3323fbf18b9fb8df3f8b97e31b145bc1146c52e764cf4aa1bfc4ba17d93359161051060018060a01b0360015416331461097f565b610527838254610522828210156109c4565b610a10565b905561053582600654610a33565b60065551908152a180f35b90503461011f57602036600319011261011f57359160085483101561059d575061056b6080926108ed565b509060018060a01b03825416916001810154916003600283015492015492815194855260208501528301526060820152f35b80fd5b5050346100fd57816003193601126100fd576020906006549051908152f35b5050346100fd57816003193601126100fd576020906008549051908152f35b5050346100fd57816003193601126100fd57905490516001600160a01b039091168152602090f35b90503461011f57602080600319360112610737576106226108d2565b84546001600160a01b03919061063b908316331461093d565b816002541694868151956370a0823160e01b8752308188015285876024818b5afa9687156106fe578297610708575b50825163a9059cbb60e01b81526001600160a01b03851682820190815260208101899052909887918a919082908690829060400103925af19788156106fe577f23d6711a1d031134a36921253c75aa59e967d38e369ac625992824315e204f2097986106e1575b508160065555519485521692a280f35b6106f790873d89116103195761030a8183610a40565b50386106d1565b83513d84823e3d90fd5b9096508581813d8311610730575b6107208183610a40565b810103126100fd5751953861066a565b503d610716565b8380fd5b90503461011f578160031936011261011f576107556108d2565b602435926107d560208560018060a01b03956107768760015416331461097f565b610788828254610522828210156109c4565b815561079682600554610a33565b600555600254855163a9059cbb60e01b81526001600160a01b03881692810192835260208301939093529193849288169183918b918391604090910190565b03925af180156108345791602093917f221c08a06b07a64803b3787861a3f276212fcccb51c2e6234077a9b8cb13047a9593610817575b50519485521692a280f35b61082d90853d87116103195761030a8183610a40565b503861080c565b82513d88823e3d90fd5b833461059d57602036600319011261059d576108586108d2565b81546001600160a01b039190610871908316331461093d565b166bffffffffffffffffffffffff60a01b600154161760015580f35b5050346100fd57816003193601126100fd5760015490516001600160a01b039091168152602090f35b8490346100fd57816003193601126100fd576020906005548152f35b600435906001600160a01b03821682036108e857565b600080fd5b60085481101561092757600860005260021b7ff3f7a9fe364faab93b216da50a3214154f22a0a2b415b23a84c8169e8b636ee30190600090565b634e487b7160e01b600052603260045260246000fd5b1561094457565b60405162461bcd60e51b8152602060048201526013602482015272233ab7322837b7b61d103737ba1037bbb732b960691b6044820152606490fd5b1561098657565b60405162461bcd60e51b8152602060048201526016602482015275233ab7322837b7b61d103737ba1020b4b221b430b4b760511b6044820152606490fd5b156109cb57565b60405162461bcd60e51b815260206004820152601a60248201527f46756e64506f6f6c3a20657363726f7720756e646572666c6f770000000000006044820152606490fd5b91908203918211610a1d57565b634e487b7160e01b600052601160045260246000fd5b91908201809211610a1d57565b90601f8019910116810190811067ffffffffffffffff821117610a6257604052565b634e487b7160e01b600052604160045260246000fd5b908160209103126108e8575180151581036108e8579056fea2646970667358221220944dd07bf31445e9e027d7392149c0bb8d7bd413758ef9db966b1537fcae1b4964736f6c63430008180033",
  "linkReferences": {},
  "deployedLinkReferences": {}
}