{
  "_format": "hh-sol-artifact-1",
  "contractName": "VerificationRegistry",
  "sourceName": "src/VerificationRegistry.sol",
  "abi": [
    {
      "inputs": [
        {
          "internalType": "address",
          "name": "_zkVerifier",
          "type": "address"
        }
      ],
      "stateMutability": "nonpayable",
      "type": "constructor"
    },
    {
      "anonymous": false,
      "inputs": [
        {
          "indexed": true,
          "internalType": "address",
          "name": "user",
          "type": "address"
        },
        {
          "indexed": false,
          "internalType": "string",
          "name": "reason",
          "type": "string"
        }
      ],
      "name": "IdentityRevoked",
      "type": "event"
    },
    {
      "anonymous": false,
      "inputs": [
        {
          "indexed": true,
          "internalType": "address",
          "name": "user",
          "type": "address"
        },
        {
          "indexed": false,
          "internalType": "bytes32",
          "name": "nullifierHash",
          "type": "bytes32"
        },
        {
          "indexed": false,
          "internalType": "uint256",
          "name": "expiresAt",
          "type": "uint256"
        }
      ],
      "name": "IdentityVerified",
      "type": "event"
    },
    {
      "anonymous": false,
      "inputs": [
        {
          "indexed": true,
          "internalType": "address",
          "name": "newVerifier",
          "type": "address"
        }
      ],
      "name": "VerifierUpdated",
      "type": "event"
    },
    {
      "inputs": [
        {
          "internalType": "address",
          "name": "user",
          "type": "address"
        }
      ],
      "name": "getIdentity",
      "outputs": [
        {
          "components": [
            {
              "internalType": "bool",
              "name": "verified",
              "type": "bool"
            },
            {
              "internalType": "bytes32",
              "name": "nullifierHash",
              "type": "bytes32"
            },
            {
              "internalType": "bytes32",
              "name": "proofHash",
              "type": "bytes32"
            },
            {
              "internalType": "uint256",
              "name": "verifiedAt",
              "type": "uint256"
            },
            {
              "internalType": "uint256",
              "name": "expiresAt",
              "type": "uint256"
            },
            {
              "internalType": "bool",
              "name": "revoked",
              "type": "bool"
            }
          ],
          "internalType": "struct VerificationRegistry.Identity",
          "name": "",
          "type": "tuple"
        }
      ],
      "stateMutability": "view",
      "type": "function"
    },
    {
      "inputs": [
        {
          "internalType": "address",
          "name": "",
          "type": "address"
        }
      ],
      "name": "identities",
      "outputs": [
        {
          "internalType": "bool",
          "name": "verified",
          "type": "bool"
        },
        {
          "internalType": "bytes32",
          "name": "nullifierHash",
          "type": "bytes32"
        },
        {
          "internalType": "bytes32",
          "name": "proofHash",
          "type": "bytes32"
        },
        {
          "internalType": "uint256",
          "name": "verifiedAt",
          "type": "uint256"
        },
        {
          "internalType": "uint256",
          "name": "expiresAt",
          "type": "uint256"
        },
        {
          "internalType": "bool",
          "name": "revoked",
          "type": "bool"
        }
      ],
      "stateMutability": "view",
      "type": "function"
    },
    {
      "inputs": [
        {
          "internalType": "address",
          "name": "user",
          "type": "address"
        }
      ],
      "name": "isIdentityVerified",
      "outputs": [
        {
          "internalType": "bool",
          "name": "",
          "type": "bool"
        }
      ],
      "stateMutability": "view",
      "type": "function"
    },
    {
      "inputs": [],
      "name": "owner",
      "outputs": [
        {
          "internalType": "address",
          "name": "",
          "type": "address"
        }
      ],
      "stateMutability": "view",
      "type": "function"
    },
    {
      "inputs": [
        {
          "internalType": "bytes32",
          "name": "nullifierHash",
          "type": "bytes32"
        },
        {
          "internalType": "bytes32",
          "name": "proofHash",
          "type": "bytes32"
        },
        {
          "internalType": "bytes",
          "name": "zkProof",
          "type": "bytes"
        }
      ],
      "name": "registerIdentity",
      "outputs": [],
      "stateMutability": "nonpayable",
      "type": "function"
    },
    {
      "inputs": [
        {
          "internalType": "address",
          "name": "user",
          "type": "address"
        },
        {
          "internalType": "string",
          "name": "reason",
          "type": "string"
        }
      ],
      "name": "revokeIdentity",
      "outputs": [],
      "stateMutability": "nonpayable",
      "type": "function"
    },
    {
      "inputs": [
        {
          "internalType": "uint256",
          "name": "period",
          "type": "uint256"
        }
      ],
      "name": "setValidityPeriod",
      "outputs": [],
      "stateMutability": "nonpayable",
      "type": "function"
    },
    {
      "inputs": [
        {
          "internalType": "address",
          "name": "_verifier",
          "type": "address"
        }
      ],
      "name": "setVerifier",
      "outputs": [],
      "stateMutability": "nonpayable",
      "type": "function"
    },
    {
      "inputs": [],
      "name": "totalVerified",
      "outputs": [
        {
          "internalType": "uint256",
          "name": "",
          "type": "uint256"
        }
      ],
      "stateMutability": "view",
      "type": "function"
    },
    {
      "inputs": [
        {
          "internalType": "bytes32",
          "name": "",
          "type": "bytes32"
        }
      ],
      "name": "usedNullifiers",
      "outputs": [
        {
          "internalType": "bool",
          "name": "",
          "type": "bool"
        }
      ],
      "stateMutability": "view",
      "type": "function"
    },
    {
      "inputs": [],
      "name": "verificationValidityPeriod",
      "outputs": [
        {
          "internalType": "uint256",
          "name": "",
          "type": "uint256"
        }
      ],
      "stateMutability": "view",
      "type": "function"
    },
    {
      "inputs": [],
      "name": "zkVerifier",
      "outputs": [
        {
          "internalType": "address",
          "name": "",
          "type": "address"
        }
      ],
      "stateMutability": "view",
      "type": "function"
    }
  ],
  "bytecode": "0x60803461008257601f610a2938819003918201601f19168301916001600160401b038311848410176100875780849260209460405283398101031261008257516001600160a01b03811690819003610082576301e1338060055560018060a01b031933816000541617600055600154161760015560405161098b908161009e8239f35b600080fd5b634e487b7160e01b600052604160045260246000fdfe6080604081815260048036101561001557600080fd5b600092833560e01c908163206137aa1461072a575080632fea7b8114610655578063409c0f76146105545780635437988d146104dd578063644ae0b9146104be57806387e647ed146104905780638da5cb5b14610468578063a5d997ea146101d5578063d6df096d146101a8578063f63ac7621461013e578063f653b81e146100c75763fe9eba15146100a757600080fd5b346100c357826003193601126100c35760209250549051908152f35b8280fd5b5090346100c35760203660031901126100c35760c09281906001600160a01b036100ef610755565b16815260026020522060ff8154169260018201549260028301549060ff6005600386015494860154950154169481519615158752602087015285015260608401526080830152151560a0820152f35b5090346100c35760203660031901126100c35760209281906001600160a01b03610166610755565b16815260028552209160ff8354169283610198575b8361018b575b5050519015158152f35b0154421091503880610181565b600581015460ff1615935061017b565b5050346101d157816003193601126101d15760015490516001600160a01b039091168152602090f35b5080fd5b509190346101d15760603660031901126101d15782359060249360443567ffffffffffffffff81116104645761020e9036908301610770565b3386526020916002835260ff8588205416610422578587526003835260ff85882054166103e057851561039e5790610247918633610855565b1561035e5760055442019182421161034c576102e284516102678161079e565b600181526005888583018981528884018c358152606085019042825260808601928a84526102b58c60a089019680885233815260028d522097511515889060ff801983541691151516179055565b516001870155516002860155516003850155518584015551151591019060ff801983541691151516179055565b84865260038252838620805460ff19166001179055805496600019881461033b575060017fb558cab5ce0a27e4646683f8c53357e94c1f98747b816fcdeb7befab18fc0c9c95969701905582519485528401523392a280f35b634e487b7160e01b87526011825286fd5b634e487b7160e01b8652601190528585fd5b85601a91606494519362461bcd60e51b85528401528201527f52656769737472793a20696e76616c6964205a4b2070726f6f660000000000006044820152fd5b845162461bcd60e51b81528085018490526018818a01527f52656769737472793a207a65726f206e756c6c696669657200000000000000006044820152606490fd5b845162461bcd60e51b8152808501849052601f818a01527f52656769737472793a20494420616c72656164792072656769737465726564006044820152606490fd5b845162461bcd60e51b8152808501849052601a818a01527f52656769737472793a20616c72656164792076657269666965640000000000006044820152606490fd5b8480fd5b5050346101d157816003193601126101d157905490516001600160a01b039091168152602090f35b8382346101d15760203660031901126101d1576104b760018060a01b0383541633146107f2565b3560055580f35b5050346101d157816003193601126101d1576020906005549051908152f35b8334610551576020366003190112610551576104f7610755565b81546001600160a01b03919061051090831633146107f2565b16806bffffffffffffffffffffffff60a01b60015416176001557fd24015cc99cc1700cafca3042840a1d8ac1e3964fd2e0e37ea29c654056ee3278280a280f35b80fd5b508290346101d157826003193601126101d15761056f610755565b60243567ffffffffffffffff81116106515761058e9036908401610770565b909160018060a01b03906105a68287541633146107f2565b1692838552600260205260ff868620541615610615575061060f8495847f887be8c4ed19b536f735a527e83ff1410194343b7c3069ba765863b465269f239596526002602052600581882001600160ff1982541617905551928392602084526020840191610834565b0390a280f35b606490602087519162461bcd60e51b83528201526016602482015275149959da5cdd1c9e4e881b9bdd081d995c9a599a595960521b6044820152fd5b8380fd5b50346100c35760203660031901126100c3578160c093610673610755565b8160a084516106818161079e565b8281528260208201528286820152826060820152826080820152015260018060a01b031681526002602052208251916106b98361079e565b60ff82541615159384845260018301546020850190815260028401549082860191825260a060ff600560038801549660608a019788528801549760808a01988952015416960195151586528251968752516020870152519085015251606084015251608083015251151560a0820152f35b9291905034610651576020366003190112610651573583526003602090815292205460ff1615158152f35b600435906001600160a01b038216820361076b57565b600080fd5b9181601f8401121561076b5782359167ffffffffffffffff831161076b576020838186019501011161076b57565b60c0810190811067ffffffffffffffff8211176107ba57604052565b634e487b7160e01b600052604160045260246000fd5b90601f8019910116810190811067ffffffffffffffff8211176107ba57604052565b156107f957565b60405162461bcd60e51b81526020600482015260136024820152722932b3b4b9ba393c9d103737ba1037bbb732b960691b6044820152606490fd5b908060209392818452848401376000828201840152601f01601f1916010190565b909160018060a01b0390816001541694851561094a57906108a1916040519586946020860196632b71bbeb60e11b88521660248601526044850152606060648501526084840191610834565b03916108b5601f19938481018352826107d0565b6000938492839251915afa3d15610941573d67ffffffffffffffff811161092d576108eb602060405194601f84011601846107d0565b82523d83602084013e5b158015610924575b610920576020818051810103126101d15760200151908115158203610551575090565b5090565b508051156108fd565b634e487b7160e01b84526041600452602484fd5b606091506108f5565b94505050505015159056fea2646970667358221220434edcf8e82f33ae38a26d1c24bea4d00bdd9e3f12448524c130c268a5dee97564736f6c63430008180033",
  "linkReferences": {},
  "deployedLinkReferences": {}
}