{"src/FundPool.sol":{"FundPool":{"abi":[{"inputs":[{"internalType":"address","name":"_stablecoin","type":"address"}],"stateMutability":"nonpayable","type":"constructor"},{"anonymous":false,"inputs":[{"indexed":true,"internalType":"address","name":"to","type":"address"},{"indexed":false,"internalType":"uint256","name":"amount","type":"uint256"}],"name":"EmergencyWithdrawal","type":"event"},{"anonymous":false,"inputs":[{"indexed":true,"internalType":"address","name":"depositor","type":"address"},{"indexed":false,"internalType":"uint256","name":"amount","type":"uint256"},{"indexed":false,"internalType":"bytes32","name":"swapTxHash","type":"bytes32"}],"name":"FundsDeposited","type":"event"},{"anonymous":false,"inputs":[{"indexed":true,"internalType":"uint256","name":"requestId","type":"uint256"},{"indexed":false,"internalType":"uint256","name":"amount","type":"uint256"}],"name":"FundsEscrowed","type":"event"},{"anonymous":false,"inputs":[{"indexed":true,"internalType":"address","name":"recipient","type":"address"},{"indexed":false,"internalType":"uint256","name":"amount","type":"uint256"}],"name":"FundsReleased","type":"event"},{"anonymous":false,"inputs":[{"indexed":false,"internalType":"uint256","name":"amount","type":"uint256"}],"name":"FundsReturned","type":"event"},{"inputs":[],"name":"aidChainContract","outputs":[{"internalType":"address","name":"","type":"address"}],"stateMutability":"view","type":"function"},{"inputs":[],"name":"availableBalance","outputs":[{"internalType":"uint256","name":"","type":"uint256"}],"stateMutability":"view","type":"function"},{"inputs":[{"internalType":"uint256","name":"amount","type":"uint256"},{"internalType":"bytes32","name":"swapTxHash","type":"bytes32"}],"name":"deposit","outputs":[],"stateMutability":"nonpayable","type":"function"},{"inputs":[{"internalType":"uint256","name":"","type":"uint256"}],"name":"deposits","outputs":[{"internalType":"address","name":"depositor","type":"address"},{"internalType":"uint256","name":"amount","type":"uint256"},{"internalType":"uint256","name":"timestamp","type":"uint256"},{"internalType":"bytes32","name":"swapTxHash","type":"bytes32"}],"stateMutability":"view","type":"function"},{"inputs":[{"internalType":"address","name":"to","type":"address"}],"name":"emergencyWithdraw","outputs":[],"stateMutability":"nonpayable","type":"function"},{"inputs":[{"internalType":"uint256","name":"requestId","type":"uint256"},{"internalType":"uint256","name":"amount","type":"uint256"}],"name":"escrowForRequest","outputs":[],"stateMutability":"nonpayable","type":"function"},{"inputs":[],"name":"getDepositCount","outputs":[{"internalType":"uint256","name":"","type":"uint256"}],"stateMutability":"view","type":"function"},{"inputs":[],"name":"getPoolStats","outputs":[{"internalType":"uint256","name":"_totalDeposited","type":"uint256"},{"internalType":"uint256","name":"_totalEscrowed","type":"uint256"},{"internalType":"uint256","name":"_totalPaidOut","type":"uint256"},{"internalType":"uint256","name":"_availableBalance","type":"uint256"}],"stateMutability":"view","type":"function"},{"inputs":[],"name":"owner","outputs":[{"internalType":"address","name":"","type":"address"}],"stateMutability":"view","type":"function"},{"inputs":[{"internalType":"address","name":"recipient","type":"address"},{"internalType":"uint256","name":"amount","type":"uint256"}],"name":"releaseTo","outputs":[],"stateMutability":"nonpayable","type":"function"},{"inputs":[{"internalType":"uint256","name":"","type":"uint256"}],"name":"requestEscrow","outputs":[{"internalType":"uint256","name":"","type":"uint256"}],"stateMutability":"view","type":"function"},{"inputs":[{"internalType":"uint256","name":"amount","type":"uint256"}],"name":"returnToPool","outputs":[],"stateMutability":"nonpayable","type":"function"},{"inputs":[{"internalType":"address","name":"_aidChain","type":"address"}],"name":"setAidChainContract","outputs":[],"stateMutability":"nonpayable","type":"function"},{"inputs":[],"name":"stablecoin","outputs":[{"internalType":"contract IERC20","name":"","type":"address"}],"stateMutability":"view","type":"function"},{"inputs":[],"name":"totalDeposited","outputs":[{"internalType":"uint256","name":"","type":"uint256"}],"stateMutability":"view","type":"function"},{"inputs":[],"name":"totalEscrowed","outputs":[{"internalType":"uint256","name":"","type":"uint256"}],"stateMutability":"view","type":"function"},{"inputs":[],"name":"totalPaidOut","outputs":[{"internalType":"uint256","name":"","type":"uint256"}],"stateMutability":"view","type":"function"}],"evm":{"bytecode":{"linkReferences":{},"object":"60803461007a57601f610b5c38819003918201601f19168301916001600160401b0383118484101761007f5780849260209460405283398101031261007a57516001600160a01b0381169081900361007a5760018060a01b0319338160005416176000556002541617600255604051610ac690816100968239f35b600080fd5b634e487b7160e01b600052604160045260246000fdfe608060408181526004918236101561001657600080fd5b600092833560e01c9182631357e1dc146108b65750816329ba84891461088d578163493f42161461083e5781634e06bad11461073b5781636ff1c9bc146106065781638da5cb5b146105de5781639363a141146105bf578163ab2f0e51146105a0578163b02c43d014610540578163b89b8764146104bf578163bbb8518814610486578163c448990314610364578163c9630cb014610174578163e9cbd8221461014b578163eeb3088914610123578163f916823114610101575063ff50abdc146100e057600080fd5b346100fd57816003193601126100fd576020906003549051908152f35b5080fd5b90503461011f578260031936011261011f5760209250549051908152f35b8280fd5b90503461011f57602036600319011261011f5760209282913581526007845220549051908152f35b5050346100fd57816003193601126100fd5760025490516001600160a01b039091168152602090f35b8383346100fd57806003193601126100fd57823590602493843590831561032a5760025483516323b872dd60e01b815233838201523088820152604481018690526001600160a01b0391602090829060649082908b9087165af18015610320576102f1575b506101e685600354610a33565b6003556101f585600654610a33565b6006558351906080820182811067ffffffffffffffff8211176102df5785523382526020820190868252858301924284526060810199868b52600854680100000000000000008110156102cd5780600161025292016008556108ed565b9690966102bd57505091600393917f8bf712d877d83c45f97b89c8745bcaacf8ea194eeb7e370d4d834678ae7ca0a998999a9351166bffffffffffffffffffffffff60a01b86541617855551600185015551600284015551910155815193845260208401523392a280f35b634e487b7160e01b8b528a905289fd5b50634e487b7160e01b8a526041865289fd5b634e487b7160e01b8852604184528888fd5b6103129060203d602011610319575b61030a8183610a40565b810190610a78565b50876101d9565b503d610300565b85513d89823e3d90fd5b606490601587602086519362461bcd60e51b855284015282015274119d5b99141bdbdb0e881e995c9bc8185b5bdd5b9d605a1b6044820152fd5b90503461011f578160031936011261011f578035916024359161039260018060a01b0360015416331461097f565b60065483811061044357848652600760205282862054610400579183916103dc7f06b740c734bbcd0a75866d82c066bc234cde7aa1ad6da3d327008f89d461d2ed95602095610a10565b6006556103ea838254610a33565b905584865260078352818187205551908152a280f35b506020606492519162461bcd60e51b8352820152601a60248201527f46756e64506f6f6c3a20616c726561647920657363726f7765640000000000006044820152fd5b506020606492519162461bcd60e51b8352820152601c60248201527f46756e64506f6f6c3a20696e73756666696369656e742066756e6473000000006044820152fd5b9190503461011f578260031936011261011f57608092506003549154906005549060065492815194855260208501528301526060820152f35b9190503461011f57602036600319011261011f57816020917f278e51d3323fbf18b9fb8df3f8b97e31b145bc1146c52e764cf4aa1bfc4ba17d93359161051060018060a01b0360015416331461097f565b610527838254610522828210156109c4565b610a10565b905561053582600654610a33565b60065551908152a180f35b90503461011f57602036600319011261011f57359160085483101561059d575061056b6080926108ed565b509060018060a01b03825416916001810154916003600283015492015492815194855260208501528301526060820152f35b80fd5b5050346100fd57816003193601126100fd576020906006549051908152f35b5050346100fd57816003193601126100fd576020906008549051908152f35b5050346100fd57816003193601126100fd57905490516001600160a01b039091168152602090f35b90503461011f57602080600319360112610737576106226108d2565b84546001600160a01b03919061063b908316331461093d565b816002541694868151956370a0823160e01b8752308188015285876024818b5afa9687156106fe578297610708575b50825163a9059cbb60e01b81526001600160a01b03851682820190815260208101899052909887918a919082908690829060400103925af19788156106fe577f23d6711a1d031134a36921253c75aa59e967d38e369ac625992824315e204f2097986106e1575b508160065555519485521692a280f35b6106f790873d89116103195761030a8183610a40565b50386106d1565b83513d84823e3d90fd5b9096508581813d8311610730575b6107208183610a40565b810103126100fd5751953861066a565b503d610716565b8380fd5b90503461011f578160031936011261011f576107556108d2565b602435926107d560208560018060a01b03956107768760015416331461097f565b610788828254610522828210156109c4565b815561079682600554610a33565b600555600254855163a9059cbb60e01b81526001600160a01b03881692810192835260208301939093529193849288169183918b918391604090910190565b03925af180156108345791602093917f221c08a06b07a64803b3787861a3f276212fcccb51c2e6234077a9b8cb13047a9593610817575b50519485521692a280f35b61082d90853d87116103195761030a8183610a40565b503861080c565b82513d88823e3d90fd5b833461059d57602036600319011261059d576108586108d2565b81546001600160a01b039190610871908316331461093d565b166bffffffffffffffffffffffff60a01b600154161760015580f35b5050346100fd57816003193601126100fd5760015490516001600160a01b039091168152602090f35b8490346100fd57816003193601126100fd576020906005548152f35b600435906001600160a01b03821682036108e857565b600080fd5b60085481101561092757600860005260021b7ff3f7a9fe364faab93b216da50a3214154f22a0a2b415b23a84c8169e8b636ee30190600090565b634e487b7160e01b600052603260045260246000fd5b1561094457565b60405162461bcd60e51b8152602060048201526013602482015272233ab7322837b7b61d103737ba1037bbb732b960691b6044820152606490fd5b1561098657565b60405162461bcd60e51b8152602060048201526016602482015275233ab7322837b7b61d103737ba1020b4b221b430b4b760511b6044820152606490fd5b156109cb57565b60405162461bcd60e51b815260206004820152601a60248201527f46756e64506f6f6c3a20657363726f7720756e646572666c6f770000000000006044820152606490fd5b91908203918211610a1d57565b634e487b7160e01b600052601160045260246000fd5b91908201809211610a1d57565b90601f8019910116810190811067ffffffffffffffff821117610a6257604052565b634e487b7160e01b600052604160045260246000fd5b908160209103126108e8575180151581036108e8579056fea2646970667358221220944dd07bf31445e9e027d7392149c0bb8d7bd413758ef9db966b1537fcae1b4964736f6c63430008180033","opcodes":"PUSH1 0x80 CALLVALUE PUSH2 0x7A JUMPI PUSH1 0x1F PUSH2 0xB5C CODESIZE DUP2 SWAP1 SUB SWAP2 DUP3 ADD PUSH1 0x1F NOT AND DUP4 ADD SWAP2 PUSH1 0x1 PUSH1 0x1 PUSH1 0x40 SHL SUB DUP4 GT DUP5 DUP5 LT OR PUSH2 0x7F JUMPI DUP1 DUP5 SWAP3 PUSH1 0x20 SWAP5 PUSH1 0x40 MSTORE DUP4 CODECOPY DUP2 ADD SUB SLT PUSH2 0x7A JUMPI MLOAD PUSH1 0x1 PUSH1 0x1 PUSH1 0xA0 SHL SUB DUP2 AND SWAP1 DUP2 SWAP1 SUB PUSH2 0x7A JUMPI PUSH1 0x1 DUP1 PUSH1 0xA0 SHL SUB NOT CALLER DUP2 PUSH1 0x0 SLOAD AND OR PUSH1 0x0 SSTORE PUSH1 0x2 SLOAD AND OR PUSH1 0x2 SSTORE PUSH1 0x40 MLOAD PUSH2 0xAC6 SWAP1 DUP2 PUSH2 0x96 DUP3 CODECOPY RETURN JUMPDEST PUSH1 0x0 DUP1 REVERT JUMPDEST PUSH4 0x4E487B71 PUSH1 0xE0 SHL PUSH1 0x0 MSTORE PUSH1 0x41 PUSH1 0x4 MSTORE PUSH1 0x24 PUSH1 0x0 REVERT INVALID PUSH1 0x80 PUSH1 0x40 DUP2 DUP2 MSTORE PUSH1 0x4 SWAP2 DUP3 CALLDATASIZE LT ISZERO PUSH2 0x16 JUMPI PUSH1 0x0 DUP1 REVERT JUMPDEST PUSH1 0x0 SWAP3 DUP4 CALLDATALOAD PUSH1 0xE0 SHR SWAP2 DUP3 PUSH4 0x1357E1DC EQ PUSH2 0x8B6 JUMPI POP DUP2 PUSH4 0x29BA8489 EQ PUSH2 0x88D JUMPI DUP2 PUSH4 0x493F4216 EQ PUSH2 0x83E JUMPI DUP2 PUSH4 0x4E06BAD1 EQ PUSH2 0x73B JUMPI DUP2 PUSH4 0x6FF1C9BC EQ PUSH2 0x606 JUMPI DUP2 PUSH4 0x8DA5CB5B EQ PUSH2 0x5DE JUMPI DUP2 PUSH4 0x9363A141 EQ PUSH2 0x5BF JUMPI DUP2 PUSH4 0xAB2F0E51 EQ PUSH2 0x5A0 JUMPI DUP2 PUSH4 0xB02C43D0 EQ PUSH2 0x540 JUMPI DUP2 PUSH4 0xB89B8764 EQ PUSH2 0x4BF JUMPI DUP2 PUSH4 0xBBB85188 EQ PUSH2 0x486 JUMPI DUP2 PUSH4 0xC4489903 EQ PUSH2 0x364 JUMPI DUP2 PUSH4 0xC9630CB0 EQ PUSH2 0x174 JUMPI DUP2 PUSH4 0xE9CBD822 EQ PUSH2 0x14B JUMPI DUP2 PUSH4 0xEEB30889 EQ PUSH2 0x123 JUMPI DUP2 PUSH4 0xF9168231 EQ PUSH2 0x101 JUMPI POP PUSH4 0xFF50ABDC EQ PUSH2 0xE0 JUMPI PUSH1 0x0 DUP1 REVERT JUMPDEST CALLVALUE PUSH2 0xFD JUMPI DUP2 PUSH1 0x3 NOT CALLDATASIZE ADD SLT PUSH2 0xFD JUMPI PUSH1 0x20 SWAP1 PUSH1 0x3 SLOAD SWAP1 MLOAD SWAP1 DUP2 MSTORE RETURN JUMPDEST POP DUP1 REVERT JUMPDEST SWAP1 POP CALLVALUE PUSH2 0x11F JUMPI DUP3 PUSH1 0x3 NOT CALLDATASIZE ADD SLT PUSH2 0x11F JUMPI PUSH1 0x20 SWAP3 POP SLOAD SWAP1 MLOAD SWAP1 DUP2 MSTORE RETURN JUMPDEST DUP3 DUP1 REVERT JUMPDEST SWAP1 POP CALLVALUE PUSH2 0x11F JUMPI PUSH1 0x20 CALLDATASIZE PUSH1 0x3 NOT ADD SLT PUSH2 0x11F JUMPI PUSH1 0x20 SWAP3 DUP3 SWAP2 CALLDATALOAD DUP2 MSTORE PUSH1 0x7 DUP5 MSTORE KECCAK256 SLOAD SWAP1 MLOAD SWAP1 DUP2 MSTORE RETURN JUMPDEST POP POP CALLVALUE PUSH2 0xFD JUMPI DUP2 PUSH1 0x3 NOT CALLDATASIZE ADD SLT PUSH2 0xFD JUMPI PUSH1 0x2 SLOAD SWAP1 MLOAD PUSH1 0x1 PUSH1 0x1 PUSH1 0xA0 SHL SUB SWAP1 SWAP2 AND DUP2 MSTORE PUSH1 0x20 SWAP1 RETURN JUMPDEST DUP4 DUP4 CALLVALUE PUSH2 0xFD JUMPI DUP1 PUSH1 0x3 NOT CALLDATASIZE ADD SLT PUSH2 0xFD JUMPI DUP3 CALLDATALOAD SWAP1 PUSH1 0x24 SWAP4 DUP5 CALLDATALOAD SWAP1 DUP4 ISZERO PUSH2 0x32A JUMPI PUSH1 0x2 SLOAD DUP4 MLOAD PUSH4 0x23B872DD PUSH1 0xE0 SHL DUP2 MSTORE CALLER DUP4 DUP3 ADD MSTORE ADDRESS DUP9 DUP3 ADD MSTORE PUSH1 0x44 DUP2 ADD DUP7 SWAP1 MSTORE PUSH1 0x1 PUSH1 0x1 PUSH1 0xA0 SHL SUB SWAP2 PUSH1 0x20 SWAP1 DUP3 SWAP1 PUSH1 0x64 SWAP1 DUP3 SWAP1 DUP12 SWAP1 DUP8 AND GAS CALL DUP1 ISZERO PUSH2 0x320 JUMPI PUSH2 0x2F1 JUMPI JUMPDEST POP PUSH2 0x1E6 DUP6 PUSH1 0x3 SLOAD PUSH2 0xA33 JUMP JUMPDEST PUSH1 0x3 SSTORE PUSH2 0x1F5 DUP6 PUSH1 0x6 SLOAD PUSH2 0xA33 JUMP JUMPDEST PUSH1 0x6 SSTORE DUP4 MLOAD SWAP1 PUSH1 0x80 DUP3 ADD DUP3 DUP2 LT PUSH8 0xFFFFFFFFFFFFFFFF DUP3 GT OR PUSH2 0x2DF JUMPI DUP6 MSTORE CALLER DUP3 MSTORE PUSH1 0x20 DUP3 ADD SWAP1 DUP7 DUP3 MSTORE DUP6 DUP4 ADD SWAP3 TIMESTAMP DUP5 MSTORE PUSH1 0x60 DUP2 ADD SWAP10 DUP7 DUP12 MSTORE PUSH1 0x8 SLOAD PUSH9 0x10000000000000000 DUP2 LT ISZERO PUSH2 0x2CD JUMPI DUP1 PUSH1 0x1 PUSH2 0x252 SWAP3 ADD PUSH1 0x8 SSTORE PUSH2 0x8ED JUMP JUMPDEST SWAP7 SWAP1 SWAP7 PUSH2 0x2BD JUMPI POP POP SWAP2 PUSH1 0x3 SWAP4 SWAP2 PUSH32 0x8BF712D877D83C45F97B89C8745BCAACF8EA194EEB7E370D4D834678AE7CA0A9 SWAP9 SWAP10 SWAP11 SWAP4 MLOAD AND PUSH12 0xFFFFFFFFFFFFFFFFFFFFFFFF PUSH1 0xA0 SHL DUP7 SLOAD AND OR DUP6 SSTORE MLOAD PUSH1 0x1 DUP6 ADD SSTORE MLOAD PUSH1 0x2 DUP5 ADD SSTORE MLOAD SWAP2 ADD SSTORE DUP2 MLOAD SWAP4 DUP5 MSTORE PUSH1 0x20 DUP5 ADD MSTORE CALLER SWAP3 LOG2 DUP1 RETURN JUMPDEST PUSH4 0x4E487B71 PUSH1 0xE0 SHL DUP12 MSTORE DUP11 SWAP1 MSTORE DUP10 REVERT JUMPDEST POP PUSH4 0x4E487B71 PUSH1 0xE0 SHL DUP11 MSTORE PUSH1 0x41 DUP7 MSTORE DUP10 REVERT JUMPDEST PUSH4 0x4E487B71 PUSH1 0xE0 SHL DUP9 MSTORE PUSH1 0x41 DUP5 MSTORE DUP9 DUP9 REVERT JUMPDEST PUSH2 0x312 SWAP1 PUSH1 0x20 RETURNDATASIZE PUSH1 0x20 GT PUSH2 0x319 JUMPI JUMPDEST PUSH2 0x30A DUP2 DUP4 PUSH2 0xA40 JUMP JUMPDEST DUP2 ADD SWAP1 PUSH2 0xA78 JUMP JUMPDEST POP DUP8 PUSH2 0x1D9 JUMP JUMPDEST POP RETURNDATASIZE PUSH2 0x300 JUMP JUMPDEST DUP6 MLOAD RETURNDATASIZE DUP10 DUP3 RETURNDATACOPY RETURNDATASIZE SWAP1 REVERT JUMPDEST PUSH1 0x64 SWAP1 PUSH1 0x15 DUP8 PUSH1 0x20 DUP7 MLOAD SWAP4 PUSH3 0x461BCD PUSH1 0xE5 SHL DUP6 MSTORE DUP5 ADD MSTORE DUP3 ADD MSTORE PUSH21 0x119D5B99141BDBDB0E881E995C9BC8185B5BDD5B9D PUSH1 0x5A SHL PUSH1 0x44 DUP3 ADD MSTORE REVERT JUMPDEST SWAP1 POP CALLVALUE PUSH2 0x11F JUMPI DUP2 PUSH1 0x3 NOT CALLDATASIZE ADD SLT PUSH2 0x11F JUMPI DUP1 CALLDATALOAD SWAP2 PUSH1 0x24 CALLDATALOAD SWAP2 PUSH2 0x392 PUSH1 0x1 DUP1 PUSH1 0xA0 SHL SUB PUSH1 0x1 SLOAD AND CALLER EQ PUSH2 0x97F JUMP JUMPDEST PUSH1 0x6 SLOAD DUP4 DUP2 LT PUSH2 0x443 JUMPI DUP5 DUP7 MSTORE PUSH1 0x7 PUSH1 0x20 MSTORE DUP3 DUP7 KECCAK256 SLOAD PUSH2 0x400 JUMPI SWAP2 DUP4 SWAP2 PUSH2 0x3DC PUSH32 0x6B740C734BBCD0A75866D82C066BC234CDE7AA1AD6DA3D327008F89D461D2ED SWAP6 PUSH1 0x20 SWAP6 PUSH2 0xA10 JUMP JUMPDEST PUSH1 0x6 SSTORE PUSH2 0x3EA DUP4 DUP3 SLOAD PUSH2 0xA33 JUMP JUMPDEST SWAP1 SSTORE DUP5 DUP7 MSTORE PUSH1 0x7 DUP4 MSTORE DUP2 DUP2 DUP8 KECCAK256 SSTORE MLOAD SWAP1 DUP2 MSTORE LOG2 DUP1 RETURN JUMPDEST POP PUSH1 0x20 PUSH1 0x64 SWAP3 MLOAD SWAP2 PUSH3 0x461BCD PUSH1 0xE5 SHL DUP4 MSTORE DUP3 ADD MSTORE PUSH1 0x1A PUSH1 0x24 DUP3 ADD MSTORE PUSH32 0x46756E64506F6F6C3A20616C726561647920657363726F776564000000000000 PUSH1 0x44 DUP3 ADD MSTORE REVERT JUMPDEST POP PUSH1 0x20 PUSH1 0x64 SWAP3 MLOAD SWAP2 PUSH3 0x461BCD PUSH1 0xE5 SHL DUP4 MSTORE DUP3 ADD MSTORE PUSH1 0x1C PUSH1 0x24 DUP3 ADD MSTORE PUSH32 0x46756E64506F6F6C3A20696E73756666696369656E742066756E647300000000 PUSH1 0x44 DUP3 ADD MSTORE REVERT JUMPDEST SWAP2 SWAP1 POP CALLVALUE PUSH2 0x11F JUMPI DUP3 PUSH1 0x3 NOT CALLDATASIZE ADD SLT PUSH2 0x11F JUMPI PUSH1 0x80 SWAP3 POP PUSH1 0x3 SLOAD SWAP2 SLOAD SWAP1 PUSH1 0x5 SLOAD SWAP1 PUSH1 0x6 SLOAD SWAP3 DUP2 MLOAD SWAP5 DUP6 MSTORE PUSH1 0x20 DUP6 ADD MSTORE DUP4 ADD MSTORE PUSH1 0x60 DUP3 ADD MSTORE RETURN JUMPDEST SWAP2 SWAP1 POP CALLVALUE PUSH2 0x11F JUMPI PUSH1 0x20 CALLDATASIZE PUSH1 0x3 NOT ADD SLT PUSH2 0x11F JUMPI DUP2 PUSH1 0x20 SWAP2 PUSH32 0x278E51D3323FBF18B9FB8DF3F8B97E31B145BC1146C52E764CF4AA1BFC4BA17D SWAP4 CALLDATALOAD SWAP2 PUSH2 0x510 PUSH1 0x1 DUP1 PUSH1 0xA0 SHL SUB PUSH1 0x1 SLOAD AND CALLER EQ PUSH2 0x97F JUMP JUMPDEST PUSH2 0x527 DUP4 DUP3 SLOAD PUSH2 0x522 DUP3 DUP3 LT ISZERO PUSH2 0x9C4 JUMP JUMPDEST PUSH2 0xA10 JUMP JUMPDEST SWAP1 SSTORE PUSH2 0x535 DUP3 PUSH1 0x6 SLOAD PUSH2 0xA33 JUMP JUMPDEST PUSH1 0x6 SSTORE MLOAD SWAP1 DUP2 MSTORE LOG1 DUP1 RETURN JUMPDEST SWAP1 POP CALLVALUE PUSH2 0x11F JUMPI PUSH1 0x20 CALLDATASIZE PUSH1 0x3 NOT ADD SLT PUSH2 0x11F JUMPI CALLDATALOAD SWAP2 PUSH1 0x8 SLOAD DUP4 LT ISZERO PUSH2 0x59D JUMPI POP PUSH2 0x56B PUSH1 0x80 SWAP3 PUSH2 0x8ED JUMP JUMPDEST POP SWAP1 PUSH1 0x1 DUP1 PUSH1 0xA0 SHL SUB DUP3 SLOAD AND SWAP2 PUSH1 0x1 DUP2 ADD SLOAD SWAP2 PUSH1 0x3 PUSH1 0x2 DUP4 ADD SLOAD SWAP3 ADD SLOAD SWAP3 DUP2 MLOAD SWAP5 DUP6 MSTORE PUSH1 0x20 DUP6 ADD MSTORE DUP4 ADD MSTORE PUSH1 0x60 DUP3 ADD MSTORE RETURN JUMPDEST DUP1 REVERT JUMPDEST POP POP CALLVALUE PUSH2 0xFD JUMPI DUP2 PUSH1 0x3 NOT CALLDATASIZE ADD SLT PUSH2 0xFD JUMPI PUSH1 0x20 SWAP1 PUSH1 0x6 SLOAD SWAP1 MLOAD SWAP1 DUP2 MSTORE RETURN JUMPDEST POP POP CALLVALUE PUSH2 0xFD JUMPI DUP2 PUSH1 0x3 NOT CALLDATASIZE ADD SLT PUSH2 0xFD JUMPI PUSH1 0x20 SWAP1 PUSH1 0x8 SLOAD SWAP1 MLOAD SWAP1 DUP2 MSTORE RETURN JUMPDEST POP POP CALLVALUE PUSH2 0xFD JUMPI DUP2 PUSH1 0x3 NOT CALLDATASIZE ADD SLT PUSH2 0xFD JUMPI SWAP1 SLOAD SWAP1 MLOAD PUSH1 0x1 PUSH1 0x1 PUSH1 0xA0 SHL SUB SWAP1 SWAP2 AND DUP2 MSTORE PUSH1 0x20 SWAP1 RETURN JUMPDEST SWAP1 POP CALLVALUE PUSH2 0x11F JUMPI PUSH1 0x20 DUP1 PUSH1 0x3 NOT CALLDATASIZE ADD SLT PUSH2 0x737 JUMPI PUSH2 0x622 PUSH2 0x8D2 JUMP JUMPDEST DUP5 SLOAD PUSH1 0x1 PUSH1 0x1 PUSH1 0xA0 SHL SUB SWAP2 SWAP1 PUSH2 0x63B SWAP1 DUP4 AND CALLER EQ PUSH2 0x93D JUMP JUMPDEST DUP2 PUSH1 0x2 SLOAD AND SWAP5 DUP7 DUP2 MLOAD SWAP6 PUSH4 0x70A08231 PUSH1 0xE0 SHL DUP8 MSTORE ADDRESS DUP2 DUP9 ADD MSTORE DUP6 DUP8 PUSH1 0x24 DUP2 DUP12 GAS STATICCALL SWAP7 DUP8 ISZERO PUSH2 0x6FE JUMPI DUP3 SWAP8 PUSH2 0x708 JUMPI JUMPDEST POP DUP3 MLOAD PUSH4 0xA9059CBB PUSH1 0xE0 SHL DUP2 MSTORE PUSH1 0x1 PUSH1 0x1 PUSH1 0xA0 SHL SUB DUP6 AND DUP3 DUP3 ADD SWAP1 DUP2 MSTORE PUSH1 0x20 DUP2 ADD DUP10 SWAP1 MSTORE SWAP1 SWAP9 DUP8 SWAP2 DUP11 SWAP2 SWAP1 DUP3 SWAP1 DUP7 SWAP1 DUP3 SWAP1 PUSH1 0x40 ADD SUB SWAP3 GAS CALL SWAP8 DUP9 ISZERO PUSH2 0x6FE JUMPI PUSH32 0x23D6711A1D031134A36921253C75AA59E967D38E369AC625992824315E204F20 SWAP8 SWAP9 PUSH2 0x6E1 JUMPI JUMPDEST POP DUP2 PUSH1 0x6 SSTORE SSTORE MLOAD SWAP5 DUP6 MSTORE AND SWAP3 LOG2 DUP1 RETURN JUMPDEST PUSH2 0x6F7 SWAP1 DUP8 RETURNDATASIZE DUP10 GT PUSH2 0x319 JUMPI PUSH2 0x30A DUP2 DUP4 PUSH2 0xA40 JUMP JUMPDEST POP CODESIZE PUSH2 0x6D1 JUMP JUMPDEST DUP4 MLOAD RETURNDATASIZE DUP5 DUP3 RETURNDATACOPY RETURNDATASIZE SWAP1 REVERT JUMPDEST SWAP1 SWAP7 POP DUP6 DUP2 DUP2 RETURNDATASIZE DUP4 GT PUSH2 0x730 JUMPI JUMPDEST PUSH2 0x720 DUP2 DUP4 PUSH2 0xA40 JUMP JUMPDEST DUP2 ADD SUB SLT PUSH2 0xFD JUMPI MLOAD SWAP6 CODESIZE PUSH2 0x66A JUMP JUMPDEST POP RETURNDATASIZE PUSH2 0x716 JUMP JUMPDEST DUP4 DUP1 REVERT JUMPDEST SWAP1 POP CALLVALUE PUSH2 0x11F JUMPI DUP2 PUSH1 0x3 NOT CALLDATASIZE ADD SLT PUSH2 0x11F JUMPI PUSH2 0x755 PUSH2 0x8D2 JUMP JUMPDEST PUSH1 0x24 CALLDATALOAD SWAP3 PUSH2 0x7D5 PUSH1 0x20 DUP6 PUSH1 0x1 DUP1 PUSH1 0xA0 SHL SUB SWAP6 PUSH2 0x776 DUP8 PUSH1 0x1 SLOAD AND CALLER EQ PUSH2 0x97F JUMP JUMPDEST PUSH2 0x788 DUP3 DUP3 SLOAD PUSH2 0x522 DUP3 DUP3 LT ISZERO PUSH2 0x9C4 JUMP JUMPDEST DUP2 SSTORE PUSH2 0x796 DUP3 PUSH1 0x5 SLOAD PUSH2 0xA33 JUMP JUMPDEST PUSH1 0x5 SSTORE PUSH1 0x2 SLOAD DUP6 MLOAD PUSH4 0xA9059CBB PUSH1 0xE0 SHL DUP2 MSTORE PUSH1 0x1 PUSH1 0x1 PUSH1 0xA0 SHL SUB DUP9 AND SWAP3 DUP2 ADD SWAP3 DUP4 MSTORE PUSH1 0x20 DUP4 ADD SWAP4 SWAP1 SWAP4 MSTORE SWAP2 SWAP4 DUP5 SWAP3 DUP9 AND SWAP2 DUP4 SWAP2 DUP12 SWAP2 DUP4 SWAP2 PUSH1 0x40 SWAP1 SWAP2 ADD SWAP1 JUMP JUMPDEST SUB SWAP3 GAS CALL DUP1 ISZERO PUSH2 0x834 JUMPI SWAP2 PUSH1 0x20 SWAP4 SWAP2 PUSH32 0x221C08A06B07A64803B3787861A3F276212FCCCB51C2E6234077A9B8CB13047A SWAP6 SWAP4 PUSH2 0x817 JUMPI JUMPDEST POP MLOAD SWAP5 DUP6 MSTORE AND SWAP3 LOG2 DUP1 RETURN JUMPDEST PUSH2 0x82D SWAP1 DUP6 RETURNDATASIZE DUP8 GT PUSH2 0x319 JUMPI PUSH2 0x30A DUP2 DUP4 PUSH2 0xA40 JUMP JUMPDEST POP CODESIZE PUSH2 0x80C JUMP JUMPDEST DUP3 MLOAD RETURNDATASIZE DUP9 DUP3 RETURNDATACOPY RETURNDATASIZE SWAP1 REVERT JUMPDEST DUP4 CALLVALUE PUSH2 0x59D JUMPI PUSH1 0x20 CALLDATASIZE PUSH1 0x3 NOT ADD SLT PUSH2 0x59D JUMPI PUSH2 0x858 PUSH2 0x8D2 JUMP JUMPDEST DUP2 SLOAD PUSH1 0x1 PUSH1 0x1 PUSH1 0xA0 SHL SUB SWAP2 SWAP1 PUSH2 0x871 SWAP1 DUP4 AND CALLER EQ PUSH2 0x93D JUMP JUMPDEST AND PUSH12 0xFFFFFFFFFFFFFFFFFFFFFFFF PUSH1 0xA0 SHL PUSH1 0x1 SLOAD AND OR PUSH1 0x1 SSTORE DUP1 RETURN JUMPDEST POP POP CALLVALUE PUSH2 0xFD JUMPI DUP2 PUSH1 0x3 NOT CALLDATASIZE ADD SLT PUSH2 0xFD JUMPI PUSH1 0x1 SLOAD SWAP1 MLOAD PUSH1 0x1 PUSH1 0x1 PUSH1 0xA0 SHL SUB SWAP1 SWAP2 AND DUP2 MSTORE PUSH1 0x20 SWAP1 RETURN JUMPDEST DUP5 SWAP1 CALLVALUE PUSH2 0xFD JUMPI DUP2 PUSH1 0x3 NOT CALLDATASIZE ADD SLT PUSH2 0xFD JUMPI PUSH1 0x20 SWAP1 PUSH1 0x5 SLOAD DUP2 MSTORE RETURN JUMPDEST PUSH1 0x4 CALLDATALOAD SWAP1 PUSH1 0x1 PUSH1 0x1 PUSH1 0xA0 SHL SUB DUP3 AND DUP3 SUB PUSH2 0x8E8 JUMPI JUMP JUMPDEST PUSH1 0x0 DUP1 REVERT JUMPDEST PUSH1 0x8 SLOAD DUP2 LT ISZERO PUSH2 0x927 JUMPI PUSH1 0x8 PUSH1 0x0 MSTORE PUSH1 0x2 SHL PUSH32 0xF3F7A9FE364FAAB93B216DA50A3214154F22A0A2B415B23A84C8169E8B636EE3 ADD SWAP1 PUSH1 0x0 SWAP1 JUMP JUMPDEST PUSH4 0x4E487B71 PUSH1 0xE0 SHL PUSH1 0x0 MSTORE PUSH1 0x32 PUSH1 0x4 MSTORE PUSH1 0x24 PUSH1 0x0 REVERT JUMPDEST ISZERO PUSH2 0x944 JUMPI JUMP JUMPDEST PUSH1 0x40 MLOAD PUSH3 0x461BCD PUSH1 0xE5 SHL DUP2 MSTORE PUSH1 0x20 PUSH1 0x4 DUP3 ADD MSTORE PUSH1 0x13 PUSH1 0x24 DUP3 ADD MSTORE PUSH19 0x233AB7322837B7B61D103737BA1037BBB732B9 PUSH1 0x69 SHL PUSH1 0x44 DUP3 ADD MSTORE PUSH1 0x64 SWAP1 REVERT JUMPDEST ISZERO PUSH2 0x986 JUMPI JUMP JUMPDEST PUSH1 0x40 MLOAD PUSH3 0x461BCD PUSH1 0xE5 SHL DUP2 MSTORE PUSH1 0x20 PUSH1 0x4 DUP3 ADD MSTORE PUSH1 0x16 PUSH1 0x24 DUP3 ADD MSTORE PUSH22 0x233AB7322837B7B61D103737BA1020B4B221B430B4B7 PUSH1 0x51 SHL PUSH1 0x44 DUP3 ADD MSTORE PUSH1 0x64 SWAP1 REVERT JUMPDEST ISZERO PUSH2 0x9CB JUMPI JUMP JUMPDEST PUSH1 0x40 MLOAD PUSH3 0x461BCD PUSH1 0xE5 SHL DUP2 MSTORE PUSH1 0x20 PUSH1 0x4 DUP3 ADD MSTORE PUSH1 0x1A PUSH1 0x24 DUP3 ADD MSTORE PUSH32 0x46756E64506F6F6C3A20657363726F7720756E646572666C6F77000000000000 PUSH1 0x44 DUP3 ADD MSTORE PUSH1 0x64 SWAP1 REVERT JUMPDEST SWAP2 SWAP1 DUP3 SUB SWAP2 DUP3 GT PUSH2 0xA1D JUMPI JUMP JUMPDEST PUSH4 0x4E487B71 PUSH1 0xE0 SHL PUSH1 0x0 MSTORE PUSH1 0x11 PUSH1 0x4 MSTORE PUSH1 0x24 PUSH1 0x0 REVERT JUMPDEST SWAP2 SWAP1 DUP3 ADD DUP1 SWAP3 GT PUSH2 0xA1D JUMPI JUMP JUMPDEST SWAP1 PUSH1 0x1F DUP1 NOT SWAP2 ADD AND DUP2 ADD SWAP1 DUP2 LT PUSH8 0xFFFFFFFFFFFFFFFF DUP3 GT OR PUSH2 0xA62 JUMPI PUSH1 0x40 MSTORE JUMP JUMPDEST PUSH4 0x4E487B71 PUSH1 0xE0 SHL PUSH1 0x0 MSTORE PUSH1 0x41 PUSH1 0x4 MSTORE PUSH1 0x24 PUSH1 0x0 REVERT JUMPDEST SWAP1 DUP2 PUSH1 0x20 SWAP2 SUB SLT PUSH2 0x8E8 JUMPI MLOAD DUP1 ISZERO ISZERO DUP2 SUB PUSH2 0x8E8 JUMPI SWAP1 JUMP INVALID LOG2 PUSH5 0x6970667358 0x22 SLT KECCAK256 SWAP5 0x4D 0xD0 PUSH28 0xF31445E9E027D7392149C0BB8D7BD413758EF9DB966B1537FCAE1B49 PUSH5 0x736F6C6343 STOP ADDMOD XOR STOP CALLER "},"methodIdentifiers":{"aidChainContract()":"29ba8489","availableBalance()":"ab2f0e51","deposit(uint256,bytes32)":"c9630cb0","deposits(uint256)":"b02c43d0","emergencyWithdraw(address)":"6ff1c9bc","escrowForRequest(uint256,uint256)":"c4489903","getDepositCount()":"9363a141","getPoolStats()":"bbb85188","owner()":"8da5cb5b","releaseTo(address,uint256)":"4e06bad1","requestEscrow(uint256)":"eeb30889","returnToPool(uint256)":"b89b8764","setAidChainContract(address)":"493f4216","stablecoin()":"e9cbd822","totalDeposited()":"ff50abdc","totalEscrowed()":"f9168231","totalPaidOut()":"1357e1dc"}}}}}