{"src/VerificationRegistry.sol":{"VerificationRegistry":{"abi":[{"inputs":[{"internalType":"address","name":"_zkVerifier","type":"address"}],"stateMutability":"nonpayable","type":"constructor"},{"anonymous":false,"inputs":[{"indexed":true,"internalType":"address","name":"user","type":"address"},{"indexed":false,"internalType":"string","name":"reason","type":"string"}],"name":"IdentityRevoked","type":"event"},{"anonymous":false,"inputs":[{"indexed":true,"internalType":"address","name":"user","type":"address"},{"indexed":false,"internalType":"bytes32","name":"nullifierHash","type":"bytes32"},{"indexed":false,"internalType":"uint256","name":"expiresAt","type":"uint256"}],"name":"IdentityVerified","type":"event"},{"anonymous":false,"inputs":[{"indexed":true,"internalType":"address","name":"newVerifier","type":"address"}],"name":"VerifierUpdated","type":"event"},{"inputs":[{"internalType":"address","name":"user","type":"address"}],"name":"getIdentity","outputs":[{"components":[{"internalType":"bool","name":"verified","type":"bool"},{"internalType":"bytes32","name":"nullifierHash","type":"bytes32"},{"internalType":"bytes32","name":"proofHash","type":"bytes32"},{"internalType":"uint256","name":"verifiedAt","type":"uint256"},{"internalType":"uint256","name":"expiresAt","type":"uint256"},{"internalType":"bool","name":"revoked","type":"bool"}],"internalType":"struct VerificationRegistry.Identity","name":"","type":"tuple"}],"stateMutability":"view","type":"function"},{"inputs":[{"internalType":"address","name":"","type":"address"}],"name":"identities","outputs":[{"internalType":"bool","name":"verified","type":"bool"},{"internalType":"bytes32","name":"nullifierHash","type":"bytes32"},{"internalType":"bytes32","name":"proofHash","type":"bytes32"},{"internalType":"uint256","name":"verifiedAt","type":"uint256"},{"internalType":"uint256","name":"expiresAt","type":"uint256"},{"internalType":"bool","name":"revoked","type":"bool"}],"stateMutability":"view","type":"function"},{"inputs":[{"internalType":"address","name":"user","type":"address"}],"name":"isIdentityVerified","outputs":[{"internalType":"bool","name":"","type":"bool"}],"stateMutability":"view","type":"function"},{"inputs":[],"name":"owner","outputs":[{"internalType":"address","name":"","type":"address"}],"stateMutability":"view","type":"function"},{"inputs":[{"internalType":"bytes32","name":"nullifierHash","type":"bytes32"},{"internalType":"bytes32","name":"proofHash","type":"bytes32"},{"internalType":"bytes","name":"zkProof","type":"bytes"}],"name":"registerIdentity","outputs":[],"stateMutability":"nonpayable","type":"function"},{"inputs":[{"internalType":"address","name":"user","type":"address"},{"internalType":"string","name":"reason","type":"string"}],"name":"revokeIdentity","outputs":[],"stateMutability":"nonpayable","type":"function"},{"inputs":[{"internalType":"uint256","name":"period","type":"uint256"}],"name":"setValidityPeriod","outputs":[],"stateMutability":"nonpayable","type":"function"},{"inputs":[{"internalType":"address","name":"_verifier","type":"address"}],"name":"setVerifier","outputs":[],"stateMutability":"nonpayable","type":"function"},{"inputs":[],"name":"totalVerified","outputs":[{"internalType":"uint256","name":"","type":"uint256"}],"stateMutability":"view","type":"function"},{"inputs":[{"internalType":"bytes32","name":"","type":"bytes32"}],"name":"usedNullifiers","outputs":[{"internalType":"bool","name":"","type":"bool"}],"stateMutability":"view","type":"function"},{"inputs":[],"name":"verificationValidityPeriod","outputs":[{"internalType":"uint256","name":"","type":"uint256"}],"stateMutability":"view","type":"function"},{"inputs":[],"name":"zkVerifier","outputs":[{"internalType":"address","name":"","type":"address"}],"stateMutability":"view","type":"function"}],"evm":{"bytecode":{"linkReferences":{},"object":"60803461008257601f610a2938819003918201601f19168301916001600160401b038311848410176100875780849260209460405283398101031261008257516001600160a01b03811690819003610082576301e1338060055560018060a01b031933816000541617600055600154161760015560405161098b908161009e8239f35b600080fd5b634e487b7160e01b600052604160045260246000fdfe6080604081815260048036101561001557600080fd5b600092833560e01c908163206137aa1461072a575080632fea7b8114610655578063409c0f76146105545780635437988d146104dd578063644ae0b9146104be57806387e647ed146104905780638da5cb5b14610468578063a5d997ea146101d5578063d6df096d146101a8578063f63ac7621461013e578063f653b81e146100c75763fe9eba15146100a757600080fd5b346100c357826003193601126100c35760209250549051908152f35b8280fd5b5090346100c35760203660031901126100c35760c09281906001600160a01b036100ef610755565b16815260026020522060ff8154169260018201549260028301549060ff6005600386015494860154950154169481519615158752602087015285015260608401526080830152151560a0820152f35b5090346100c35760203660031901126100c35760209281906001600160a01b03610166610755565b16815260028552209160ff8354169283610198575b8361018b575b5050519015158152f35b0154421091503880610181565b600581015460ff1615935061017b565b5050346101d157816003193601126101d15760015490516001600160a01b039091168152602090f35b5080fd5b509190346101d15760603660031901126101d15782359060249360443567ffffffffffffffff81116104645761020e9036908301610770565b3386526020916002835260ff8588205416610422578587526003835260ff85882054166103e057851561039e5790610247918633610855565b1561035e5760055442019182421161034c576102e284516102678161079e565b600181526005888583018981528884018c358152606085019042825260808601928a84526102b58c60a089019680885233815260028d522097511515889060ff801983541691151516179055565b516001870155516002860155516003850155518584015551151591019060ff801983541691151516179055565b84865260038252838620805460ff19166001179055805496600019881461033b575060017fb558cab5ce0a27e4646683f8c53357e94c1f98747b816fcdeb7befab18fc0c9c95969701905582519485528401523392a280f35b634e487b7160e01b87526011825286fd5b634e487b7160e01b8652601190528585fd5b85601a91606494519362461bcd60e51b85528401528201527f52656769737472793a20696e76616c6964205a4b2070726f6f660000000000006044820152fd5b845162461bcd60e51b81528085018490526018818a01527f52656769737472793a207a65726f206e756c6c696669657200000000000000006044820152606490fd5b845162461bcd60e51b8152808501849052601f818a01527f52656769737472793a20494420616c72656164792072656769737465726564006044820152606490fd5b845162461bcd60e51b8152808501849052601a818a01527f52656769737472793a20616c72656164792076657269666965640000000000006044820152606490fd5b8480fd5b5050346101d157816003193601126101d157905490516001600160a01b039091168152602090f35b8382346101d15760203660031901126101d1576104b760018060a01b0383541633146107f2565b3560055580f35b5050346101d157816003193601126101d1576020906005549051908152f35b8334610551576020366003190112610551576104f7610755565b81546001600160a01b03919061051090831633146107f2565b16806bffffffffffffffffffffffff60a01b60015416176001557fd24015cc99cc1700cafca3042840a1d8ac1e3964fd2e0e37ea29c654056ee3278280a280f35b80fd5b508290346101d157826003193601126101d15761056f610755565b60243567ffffffffffffffff81116106515761058e9036908401610770565b909160018060a01b03906105a68287541633146107f2565b1692838552600260205260ff868620541615610615575061060f8495847f887be8c4ed19b536f735a527e83ff1410194343b7c3069ba765863b465269f239596526002602052600581882001600160ff1982541617905551928392602084526020840191610834565b0390a280f35b606490602087519162461bcd60e51b83528201526016602482015275149959da5cdd1c9e4e881b9bdd081d995c9a599a595960521b6044820152fd5b8380fd5b50346100c35760203660031901126100c3578160c093610673610755565b8160a084516106818161079e565b8281528260208201528286820152826060820152826080820152015260018060a01b031681526002602052208251916106b98361079e565b60ff82541615159384845260018301546020850190815260028401549082860191825260a060ff600560038801549660608a019788528801549760808a01988952015416960195151586528251968752516020870152519085015251606084015251608083015251151560a0820152f35b9291905034610651576020366003190112610651573583526003602090815292205460ff1615158152f35b600435906001600160a01b038216820361076b57565b600080fd5b9181601f8401121561076b5782359167ffffffffffffffff831161076b576020838186019501011161076b57565b60c0810190811067ffffffffffffffff8211176107ba57604052565b634e487b7160e01b600052604160045260246000fd5b90601f8019910116810190811067ffffffffffffffff8211176107ba57604052565b156107f957565b60405162461bcd60e51b81526020600482015260136024820152722932b3b4b9ba393c9d103737ba1037bbb732b960691b6044820152606490fd5b908060209392818452848401376000828201840152601f01601f1916010190565b909160018060a01b0390816001541694851561094a57906108a1916040519586946020860196632b71bbeb60e11b88521660248601526044850152606060648501526084840191610834565b03916108b5601f19938481018352826107d0565b6000938492839251915afa3d15610941573d67ffffffffffffffff811161092d576108eb602060405194601f84011601846107d0565b82523d83602084013e5b158015610924575b610920576020818051810103126101d15760200151908115158203610551575090565b5090565b508051156108fd565b634e487b7160e01b84526041600452602484fd5b606091506108f5565b94505050505015159056fea2646970667358221220434edcf8e82f33ae38a26d1c24bea4d00bdd9e3f12448524c130c268a5dee97564736f6c63430008180033","opcodes":"PUSH1 0x80 CALLVALUE PUSH2 0x82 JUMPI PUSH1 0x1F PUSH2 0xA29 CODESIZE DUP2 SWAP1 SUB SWAP2 DUP3 ADD PUSH1 0x1F NOT AND DUP4 ADD SWAP2 PUSH1 0x1 PUSH1 0x1 PUSH1 0x40 SHL SUB DUP4 GT DUP5 DUP5 LT OR PUSH2 0x87 JUMPI DUP1 DUP5 SWAP3 PUSH1 0x20 SWAP5 PUSH1 0x40 MSTORE DUP4 CODECOPY DUP2 ADD SUB SLT PUSH2 0x82 JUMPI MLOAD PUSH1 0x1 PUSH1 0x1 PUSH1 0xA0 SHL SUB DUP2 AND SWAP1 DUP2 SWAP1 SUB PUSH2 0x82 JUMPI PUSH4 0x1E13380 PUSH1 0x5 SSTORE PUSH1 0x1 DUP1 PUSH1 0xA0 SHL SUB NOT CALLER DUP2 PUSH1 0x0 SLOAD AND OR PUSH1 0x0 SSTORE PUSH1 0x1 SLOAD AND OR PUSH1 0x1 SSTORE PUSH1 0x40 MLOAD PUSH2 0x98B SWAP1 DUP2 PUSH2 0x9E DUP3 CODECOPY RETURN JUMPDEST PUSH1 0x0 DUP1 REVERT JUMPDEST PUSH4 0x4E487B71 PUSH1 0xE0 SHL PUSH1 0x0 MSTORE PUSH1 0x41 PUSH1 0x4 MSTORE PUSH1 0x24 PUSH1 0x0 REVERT INVALID PUSH1 0x80 PUSH1 0x40 DUP2 DUP2 MSTORE PUSH1 0x4 DUP1 CALLDATASIZE LT ISZERO PUSH2 0x15 JUMPI PUSH1 0x0 DUP1 REVERT JUMPDEST PUSH1 0x0 SWAP3 DUP4 CALLDATALOAD PUSH1 0xE0 SHR SWAP1 DUP2 PUSH4 0x206137AA EQ PUSH2 0x72A JUMPI POP DUP1 PUSH4 0x2FEA7B81 EQ PUSH2 0x655 JUMPI DUP1 PUSH4 0x409C0F76 EQ PUSH2 0x554 JUMPI DUP1 PUSH4 0x5437988D EQ PUSH2 0x4DD JUMPI DUP1 PUSH4 0x644AE0B9 EQ PUSH2 0x4BE JUMPI DUP1 PUSH4 0x87E647ED EQ PUSH2 0x490 JUMPI DUP1 PUSH4 0x8DA5CB5B EQ PUSH2 0x468 JUMPI DUP1 PUSH4 0xA5D997EA EQ PUSH2 0x1D5 JUMPI DUP1 PUSH4 0xD6DF096D EQ PUSH2 0x1A8 JUMPI DUP1 PUSH4 0xF63AC762 EQ PUSH2 0x13E JUMPI DUP1 PUSH4 0xF653B81E EQ PUSH2 0xC7 JUMPI PUSH4 0xFE9EBA15 EQ PUSH2 0xA7 JUMPI PUSH1 0x0 DUP1 REVERT JUMPDEST CALLVALUE PUSH2 0xC3 JUMPI DUP3 PUSH1 0x3 NOT CALLDATASIZE ADD SLT PUSH2 0xC3 JUMPI PUSH1 0x20 SWAP3 POP SLOAD SWAP1 MLOAD SWAP1 DUP2 MSTORE RETURN JUMPDEST DUP3 DUP1 REVERT JUMPDEST POP SWAP1 CALLVALUE PUSH2 0xC3 JUMPI PUSH1 0x20 CALLDATASIZE PUSH1 0x3 NOT ADD SLT PUSH2 0xC3 JUMPI PUSH1 0xC0 SWAP3 DUP2 SWAP1 PUSH1 0x1 PUSH1 0x1 PUSH1 0xA0 SHL SUB PUSH2 0xEF PUSH2 0x755 JUMP JUMPDEST AND DUP2 MSTORE PUSH1 0x2 PUSH1 0x20 MSTORE KECCAK256 PUSH1 0xFF DUP2 SLOAD AND SWAP3 PUSH1 0x1 DUP3 ADD SLOAD SWAP3 PUSH1 0x2 DUP4 ADD SLOAD SWAP1 PUSH1 0xFF PUSH1 0x5 PUSH1 0x3 DUP7 ADD SLOAD SWAP5 DUP7 ADD SLOAD SWAP6 ADD SLOAD AND SWAP5 DUP2 MLOAD SWAP7 ISZERO ISZERO DUP8 MSTORE PUSH1 0x20 DUP8 ADD MSTORE DUP6 ADD MSTORE PUSH1 0x60 DUP5 ADD MSTORE PUSH1 0x80 DUP4 ADD MSTORE ISZERO ISZERO PUSH1 0xA0 DUP3 ADD MSTORE RETURN JUMPDEST POP SWAP1 CALLVALUE PUSH2 0xC3 JUMPI PUSH1 0x20 CALLDATASIZE PUSH1 0x3 NOT ADD SLT PUSH2 0xC3 JUMPI PUSH1 0x20 SWAP3 DUP2 SWAP1 PUSH1 0x1 PUSH1 0x1 PUSH1 0xA0 SHL SUB PUSH2 0x166 PUSH2 0x755 JUMP JUMPDEST AND DUP2 MSTORE PUSH1 0x2 DUP6 MSTORE KECCAK256 SWAP2 PUSH1 0xFF DUP4 SLOAD AND SWAP3 DUP4 PUSH2 0x198 JUMPI JUMPDEST DUP4 PUSH2 0x18B JUMPI JUMPDEST POP POP MLOAD SWAP1 ISZERO ISZERO DUP2 MSTORE RETURN JUMPDEST ADD SLOAD TIMESTAMP LT SWAP2 POP CODESIZE DUP1 PUSH2 0x181 JUMP JUMPDEST PUSH1 0x5 DUP2 ADD SLOAD PUSH1 0xFF AND ISZERO SWAP4 POP PUSH2 0x17B JUMP JUMPDEST POP POP CALLVALUE PUSH2 0x1D1 JUMPI DUP2 PUSH1 0x3 NOT CALLDATASIZE ADD SLT PUSH2 0x1D1 JUMPI PUSH1 0x1 SLOAD SWAP1 MLOAD PUSH1 0x1 PUSH1 0x1 PUSH1 0xA0 SHL SUB SWAP1 SWAP2 AND DUP2 MSTORE PUSH1 0x20 SWAP1 RETURN JUMPDEST POP DUP1 REVERT JUMPDEST POP SWAP2 SWAP1 CALLVALUE PUSH2 0x1D1 JUMPI PUSH1 0x60 CALLDATASIZE PUSH1 0x3 NOT ADD SLT PUSH2 0x1D1 JUMPI DUP3 CALLDATALOAD SWAP1 PUSH1 0x24 SWAP4 PUSH1 0x44 CALLDATALOAD PUSH8 0xFFFFFFFFFFFFFFFF DUP2 GT PUSH2 0x464 JUMPI PUSH2 0x20E SWAP1 CALLDATASIZE SWAP1 DUP4 ADD PUSH2 0x770 JUMP JUMPDEST CALLER DUP7 MSTORE PUSH1 0x20 SWAP2 PUSH1 0x2 DUP4 MSTORE PUSH1 0xFF DUP6 DUP9 KECCAK256 SLOAD AND PUSH2 0x422 JUMPI DUP6 DUP8 MSTORE PUSH1 0x3 DUP4 MSTORE PUSH1 0xFF DUP6 DUP9 KECCAK256 SLOAD AND PUSH2 0x3E0 JUMPI DUP6 ISZERO PUSH2 0x39E JUMPI SWAP1 PUSH2 0x247 SWAP2 DUP7 CALLER PUSH2 0x855 JUMP JUMPDEST ISZERO PUSH2 0x35E JUMPI PUSH1 0x5 SLOAD TIMESTAMP ADD SWAP2 DUP3 TIMESTAMP GT PUSH2 0x34C JUMPI PUSH2 0x2E2 DUP5 MLOAD PUSH2 0x267 DUP2 PUSH2 0x79E JUMP JUMPDEST PUSH1 0x1 DUP2 MSTORE PUSH1 0x5 DUP9 DUP6 DUP4 ADD DUP10 DUP2 MSTORE DUP9 DUP5 ADD DUP13 CALLDATALOAD DUP2 MSTORE PUSH1 0x60 DUP6 ADD SWAP1 TIMESTAMP DUP3 MSTORE PUSH1 0x80 DUP7 ADD SWAP3 DUP11 DUP5 MSTORE PUSH2 0x2B5 DUP13 PUSH1 0xA0 DUP10 ADD SWAP7 DUP1 DUP9 MSTORE CALLER DUP2 MSTORE PUSH1 0x2 DUP14 MSTORE KECCAK256 SWAP8 MLOAD ISZERO ISZERO DUP9 SWAP1 PUSH1 0xFF DUP1 NOT DUP4 SLOAD AND SWAP2 ISZERO ISZERO AND OR SWAP1 SSTORE JUMP JUMPDEST MLOAD PUSH1 0x1 DUP8 ADD SSTORE MLOAD PUSH1 0x2 DUP7 ADD SSTORE MLOAD PUSH1 0x3 DUP6 ADD SSTORE MLOAD DUP6 DUP5 ADD SSTORE MLOAD ISZERO ISZERO SWAP2 ADD SWAP1 PUSH1 0xFF DUP1 NOT DUP4 SLOAD AND SWAP2 ISZERO ISZERO AND OR SWAP1 SSTORE JUMP JUMPDEST DUP5 DUP7 MSTORE PUSH1 0x3 DUP3 MSTORE DUP4 DUP7 KECCAK256 DUP1 SLOAD PUSH1 0xFF NOT AND PUSH1 0x1 OR SWAP1 SSTORE DUP1 SLOAD SWAP7 PUSH1 0x0 NOT DUP9 EQ PUSH2 0x33B JUMPI POP PUSH1 0x1 PUSH32 0xB558CAB5CE0A27E4646683F8C53357E94C1F98747B816FCDEB7BEFAB18FC0C9C SWAP6 SWAP7 SWAP8 ADD SWAP1 SSTORE DUP3 MLOAD SWAP5 DUP6 MSTORE DUP5 ADD MSTORE CALLER SWAP3 LOG2 DUP1 RETURN JUMPDEST PUSH4 0x4E487B71 PUSH1 0xE0 SHL DUP8 MSTORE PUSH1 0x11 DUP3 MSTORE DUP7 REVERT JUMPDEST PUSH4 0x4E487B71 PUSH1 0xE0 SHL DUP7 MSTORE PUSH1 0x11 SWAP1 MSTORE DUP6 DUP6 REVERT JUMPDEST DUP6 PUSH1 0x1A SWAP2 PUSH1 0x64 SWAP5 MLOAD SWAP4 PUSH3 0x461BCD PUSH1 0xE5 SHL DUP6 MSTORE DUP5 ADD MSTORE DUP3 ADD MSTORE PUSH32 0x52656769737472793A20696E76616C6964205A4B2070726F6F66000000000000 PUSH1 0x44 DUP3 ADD MSTORE REVERT JUMPDEST DUP5 MLOAD PUSH3 0x461BCD PUSH1 0xE5 SHL DUP2 MSTORE DUP1 DUP6 ADD DUP5 SWAP1 MSTORE PUSH1 0x18 DUP2 DUP11 ADD MSTORE PUSH32 0x52656769737472793A207A65726F206E756C6C69666965720000000000000000 PUSH1 0x44 DUP3 ADD MSTORE PUSH1 0x64 SWAP1 REVERT JUMPDEST DUP5 MLOAD PUSH3 0x461BCD PUSH1 0xE5 SHL DUP2 MSTORE DUP1 DUP6 ADD DUP5 SWAP1 MSTORE PUSH1 0x1F DUP2 DUP11 ADD MSTORE PUSH32 0x52656769737472793A20494420616C7265616479207265676973746572656400 PUSH1 0x44 DUP3 ADD MSTORE PUSH1 0x64 SWAP1 REVERT JUMPDEST DUP5 MLOAD PUSH3 0x461BCD PUSH1 0xE5 SHL DUP2 MSTORE DUP1 DUP6 ADD DUP5 SWAP1 MSTORE PUSH1 0x1A DUP2 DUP11 ADD MSTORE PUSH32 0x52656769737472793A20616C7265616479207665726966696564000000000000 PUSH1 0x44 DUP3 ADD MSTORE PUSH1 0x64 SWAP1 REVERT JUMPDEST DUP5 DUP1 REVERT JUMPDEST POP POP CALLVALUE PUSH2 0x1D1 JUMPI DUP2 PUSH1 0x3 NOT CALLDATASIZE ADD SLT PUSH2 0x1D1 JUMPI SWAP1 SLOAD SWAP1 MLOAD PUSH1 0x1 PUSH1 0x1 PUSH1 0xA0 SHL SUB SWAP1 SWAP2 AND DUP2 MSTORE PUSH1 0x20 SWAP1 RETURN JUMPDEST DUP4 DUP3 CALLVALUE PUSH2 0x1D1 JUMPI PUSH1 0x20 CALLDATASIZE PUSH1 0x3 NOT ADD SLT PUSH2 0x1D1 JUMPI PUSH2 0x4B7 PUSH1 0x1 DUP1 PUSH1 0xA0 SHL SUB DUP4 SLOAD AND CALLER EQ PUSH2 0x7F2 JUMP JUMPDEST CALLDATALOAD PUSH1 0x5 SSTORE DUP1 RETURN JUMPDEST POP POP CALLVALUE PUSH2 0x1D1 JUMPI DUP2 PUSH1 0x3 NOT CALLDATASIZE ADD SLT PUSH2 0x1D1 JUMPI PUSH1 0x20 SWAP1 PUSH1 0x5 SLOAD SWAP1 MLOAD SWAP1 DUP2 MSTORE RETURN JUMPDEST DUP4 CALLVALUE PUSH2 0x551 JUMPI PUSH1 0x20 CALLDATASIZE PUSH1 0x3 NOT ADD SLT PUSH2 0x551 JUMPI PUSH2 0x4F7 PUSH2 0x755 JUMP JUMPDEST DUP2 SLOAD PUSH1 0x1 PUSH1 0x1 PUSH1 0xA0 SHL SUB SWAP2 SWAP1 PUSH2 0x510 SWAP1 DUP4 AND CALLER EQ PUSH2 0x7F2 JUMP JUMPDEST AND DUP1 PUSH12 0xFFFFFFFFFFFFFFFFFFFFFFFF PUSH1 0xA0 SHL PUSH1 0x1 SLOAD AND OR PUSH1 0x1 SSTORE PUSH32 0xD24015CC99CC1700CAFCA3042840A1D8AC1E3964FD2E0E37EA29C654056EE327 DUP3 DUP1 LOG2 DUP1 RETURN JUMPDEST DUP1 REVERT JUMPDEST POP DUP3 SWAP1 CALLVALUE PUSH2 0x1D1 JUMPI DUP3 PUSH1 0x3 NOT CALLDATASIZE ADD SLT PUSH2 0x1D1 JUMPI PUSH2 0x56F PUSH2 0x755 JUMP JUMPDEST PUSH1 0x24 CALLDATALOAD PUSH8 0xFFFFFFFFFFFFFFFF DUP2 GT PUSH2 0x651 JUMPI PUSH2 0x58E SWAP1 CALLDATASIZE SWAP1 DUP5 ADD PUSH2 0x770 JUMP JUMPDEST SWAP1 SWAP2 PUSH1 0x1 DUP1 PUSH1 0xA0 SHL SUB SWAP1 PUSH2 0x5A6 DUP3 DUP8 SLOAD AND CALLER EQ PUSH2 0x7F2 JUMP JUMPDEST AND SWAP3 DUP4 DUP6 MSTORE PUSH1 0x2 PUSH1 0x20 MSTORE PUSH1 0xFF DUP7 DUP7 KECCAK256 SLOAD AND ISZERO PUSH2 0x615 JUMPI POP PUSH2 0x60F DUP5 SWAP6 DUP5 PUSH32 0x887BE8C4ED19B536F735A527E83FF1410194343B7C3069BA765863B465269F23 SWAP6 SWAP7 MSTORE PUSH1 0x2 PUSH1 0x20 MSTORE PUSH1 0x5 DUP2 DUP9 KECCAK256 ADD PUSH1 0x1 PUSH1 0xFF NOT DUP3 SLOAD AND OR SWAP1 SSTORE MLOAD SWAP3 DUP4 SWAP3 PUSH1 0x20 DUP5 MSTORE PUSH1 0x20 DUP5 ADD SWAP2 PUSH2 0x834 JUMP JUMPDEST SUB SWAP1 LOG2 DUP1 RETURN JUMPDEST PUSH1 0x64 SWAP1 PUSH1 0x20 DUP8 MLOAD SWAP2 PUSH3 0x461BCD PUSH1 0xE5 SHL DUP4 MSTORE DUP3 ADD MSTORE PUSH1 0x16 PUSH1 0x24 DUP3 ADD MSTORE PUSH22 0x149959DA5CDD1C9E4E881B9BDD081D995C9A599A5959 PUSH1 0x52 SHL PUSH1 0x44 DUP3 ADD MSTORE REVERT JUMPDEST DUP4 DUP1 REVERT JUMPDEST POP CALLVALUE PUSH2 0xC3 JUMPI PUSH1 0x20 CALLDATASIZE PUSH1 0x3 NOT ADD SLT PUSH2 0xC3 JUMPI DUP2 PUSH1 0xC0 SWAP4 PUSH2 0x673 PUSH2 0x755 JUMP JUMPDEST DUP2 PUSH1 0xA0 DUP5 MLOAD PUSH2 0x681 DUP2 PUSH2 0x79E JUMP JUMPDEST DUP3 DUP2 MSTORE DUP3 PUSH1 0x20 DUP3 ADD MSTORE DUP3 DUP7 DUP3 ADD MSTORE DUP3 PUSH1 0x60 DUP3 ADD MSTORE DUP3 PUSH1 0x80 DUP3 ADD MSTORE ADD MSTORE PUSH1 0x1 DUP1 PUSH1 0xA0 SHL SUB AND DUP2 MSTORE PUSH1 0x2 PUSH1 0x20 MSTORE KECCAK256 DUP3 MLOAD SWAP2 PUSH2 0x6B9 DUP4 PUSH2 0x79E JUMP JUMPDEST PUSH1 0xFF DUP3 SLOAD AND ISZERO ISZERO SWAP4 DUP5 DUP5 MSTORE PUSH1 0x1 DUP4 ADD SLOAD PUSH1 0x20 DUP6 ADD SWAP1 DUP2 MSTORE PUSH1 0x2 DUP5 ADD SLOAD SWAP1 DUP3 DUP7 ADD SWAP2 DUP3 MSTORE PUSH1 0xA0 PUSH1 0xFF PUSH1 0x5 PUSH1 0x3 DUP9 ADD SLOAD SWAP7 PUSH1 0x60 DUP11 ADD SWAP8 DUP9 MSTORE DUP9 ADD SLOAD SWAP8 PUSH1 0x80 DUP11 ADD SWAP9 DUP10 MSTORE ADD SLOAD AND SWAP7 ADD SWAP6 ISZERO ISZERO DUP7 MSTORE DUP3 MLOAD SWAP7 DUP8 MSTORE MLOAD PUSH1 0x20 DUP8 ADD MSTORE MLOAD SWAP1 DUP6 ADD MSTORE MLOAD PUSH1 0x60 DUP5 ADD MSTORE MLOAD PUSH1 0x80 DUP4 ADD MSTORE MLOAD ISZERO ISZERO PUSH1 0xA0 DUP3 ADD MSTORE RETURN JUMPDEST SWAP3 SWAP2 SWAP1 POP CALLVALUE PUSH2 0x651 JUMPI PUSH1 0x20 CALLDATASIZE PUSH1 0x3 NOT ADD SLT PUSH2 0x651 JUMPI CALLDATALOAD DUP4 MSTORE PUSH1 0x3 PUSH1 0x20 SWAP1 DUP2 MSTORE SWAP3 KECCAK256 SLOAD PUSH1 0xFF AND ISZERO ISZERO DUP2 MSTORE RETURN JUMPDEST PUSH1 0x4 CALLDATALOAD SWAP1 PUSH1 0x1 PUSH1 0x1 PUSH1 0xA0 SHL SUB DUP3 AND DUP3 SUB PUSH2 0x76B JUMPI JUMP JUMPDEST PUSH1 0x0 DUP1 REVERT JUMPDEST SWAP2 DUP2 PUSH1 0x1F DUP5 ADD SLT ISZERO PUSH2 0x76B JUMPI DUP3 CALLDATALOAD SWAP2 PUSH8 0xFFFFFFFFFFFFFFFF DUP4 GT PUSH2 0x76B JUMPI PUSH1 0x20 DUP4 DUP2 DUP7 ADD SWAP6 ADD ADD GT PUSH2 0x76B JUMPI JUMP JUMPDEST PUSH1 0xC0 DUP2 ADD SWAP1 DUP2 LT PUSH8 0xFFFFFFFFFFFFFFFF DUP3 GT OR PUSH2 0x7BA JUMPI PUSH1 0x40 MSTORE JUMP JUMPDEST PUSH4 0x4E487B71 PUSH1 0xE0 SHL PUSH1 0x0 MSTORE PUSH1 0x41 PUSH1 0x4 MSTORE PUSH1 0x24 PUSH1 0x0 REVERT JUMPDEST SWAP1 PUSH1 0x1F DUP1 NOT SWAP2 ADD AND DUP2 ADD SWAP1 DUP2 LT PUSH8 0xFFFFFFFFFFFFFFFF DUP3 GT OR PUSH2 0x7BA JUMPI PUSH1 0x40 MSTORE JUMP JUMPDEST ISZERO PUSH2 0x7F9 JUMPI JUMP JUMPDEST PUSH1 0x40 MLOAD PUSH3 0x461BCD PUSH1 0xE5 SHL DUP2 MSTORE PUSH1 0x20 PUSH1 0x4 DUP3 ADD MSTORE PUSH1 0x13 PUSH1 0x24 DUP3 ADD MSTORE PUSH19 0x2932B3B4B9BA393C9D103737BA1037BBB732B9 PUSH1 0x69 SHL PUSH1 0x44 DUP3 ADD MSTORE PUSH1 0x64 SWAP1 REVERT JUMPDEST SWAP1 DUP1 PUSH1 0x20 SWAP4 SWAP3 DUP2 DUP5 MSTORE DUP5 DUP5 ADD CALLDATACOPY PUSH1 0x0 DUP3 DUP3 ADD DUP5 ADD MSTORE PUSH1 0x1F ADD PUSH1 0x1F NOT AND ADD ADD SWAP1 JUMP JUMPDEST SWAP1 SWAP2 PUSH1 0x1 DUP1 PUSH1 0xA0 SHL SUB SWAP1 DUP2 PUSH1 0x1 SLOAD AND SWAP5 DUP6 ISZERO PUSH2 0x94A JUMPI SWAP1 PUSH2 0x8A1 SWAP2 PUSH1 0x40 MLOAD SWAP6 DUP7 SWAP5 PUSH1 0x20 DUP7 ADD SWAP7 PUSH4 0x2B71BBEB PUSH1 0xE1 SHL DUP9 MSTORE AND PUSH1 0x24 DUP7 ADD MSTORE PUSH1 0x44 DUP6 ADD MSTORE PUSH1 0x60 PUSH1 0x64 DUP6 ADD MSTORE PUSH1 0x84 DUP5 ADD SWAP2 PUSH2 0x834 JUMP JUMPDEST SUB SWAP2 PUSH2 0x8B5 PUSH1 0x1F NOT SWAP4 DUP5 DUP2 ADD DUP4 MSTORE DUP3 PUSH2 0x7D0 JUMP JUMPDEST PUSH1 0x0 SWAP4 DUP5 SWAP3 DUP4 SWAP3 MLOAD SWAP2 GAS STATICCALL RETURNDATASIZE ISZERO PUSH2 0x941 JUMPI RETURNDATASIZE PUSH8 0xFFFFFFFFFFFFFFFF DUP2 GT PUSH2 0x92D JUMPI PUSH2 0x8EB PUSH1 0x20 PUSH1 0x40 MLOAD SWAP5 PUSH1 0x1F DUP5 ADD AND ADD DUP5 PUSH2 0x7D0 JUMP JUMPDEST DUP3 MSTORE RETURNDATASIZE DUP4 PUSH1 0x20 DUP5 ADD RETURNDATACOPY JUMPDEST ISZERO DUP1 ISZERO PUSH2 0x924 JUMPI JUMPDEST PUSH2 0x920 JUMPI PUSH1 0x20 DUP2 DUP1 MLOAD DUP2 ADD SUB SLT PUSH2 0x1D1 JUMPI PUSH1 0x20 ADD MLOAD SWAP1 DUP2 ISZERO ISZERO DUP3 SUB PUSH2 0x551 JUMPI POP SWAP1 JUMP JUMPDEST POP SWAP1 JUMP JUMPDEST POP DUP1 MLOAD ISZERO PUSH2 0x8FD JUMP JUMPDEST PUSH4 0x4E487B71 PUSH1 0xE0 SHL DUP5 MSTORE PUSH1 0x41 PUSH1 0x4 MSTORE PUSH1 0x24 DUP5 REVERT JUMPDEST PUSH1 0x60 SWAP2 POP PUSH2 0x8F5 JUMP JUMPDEST SWAP5 POP POP POP POP POP ISZERO ISZERO SWAP1 JUMP INVALID LOG2 PUSH5 0x6970667358 0x22 SLT KECCAK256 NUMBER 0x4E 0xDC 0xF8 0xE8 0x2F CALLER 0xAE CODESIZE LOG2 PUSH14 0x1C24BEA4D00BDD9E3F12448524C1 ADDRESS 0xC2 PUSH9 0xA5DEE97564736F6C63 NUMBER STOP ADDMOD XOR STOP CALLER "},"methodIdentifiers":{"getIdentity(address)":"2fea7b81","identities(address)":"f653b81e","isIdentityVerified(address)":"f63ac762","owner()":"8da5cb5b","registerIdentity(bytes32,bytes32,bytes)":"a5d997ea","revokeIdentity(address,string)":"409c0f76","setValidityPeriod(uint256)":"87e647ed","setVerifier(address)":"5437988d","totalVerified()":"fe9eba15","usedNullifiers(bytes32)":"206137aa","verificationValidityPeriod()":"644ae0b9","zkVerifier()":"d6df096d"}}}}}