{"src/AidChain.sol":{"AidChain":{"abi":[{"inputs":[{"internalType":"address","name":"_oracleOperator","type":"address"},{"internalType":"address","name":"_fundPool","type":"address"},{"internalType":"address","name":"_verificationRegistry","type":"address"}],"stateMutability":"nonpayable","type":"constructor"},{"anonymous":false,"inputs":[{"indexed":true,"internalType":"uint256","name":"requestId","type":"uint256"},{"indexed":true,"internalType":"address","name":"requester","type":"address"},{"indexed":false,"internalType":"uint8","name":"aidType","type":"uint8"},{"indexed":false,"internalType":"uint8","name":"urgency","type":"uint8"}],"name":"AidRequested","type":"event"},{"anonymous":false,"inputs":[{"indexed":true,"internalType":"uint256","name":"requestId","type":"uint256"},{"indexed":false,"internalType":"bool","name":"approved","type":"bool"},{"indexed":false,"internalType":"uint8","name":"recommendedAid","type":"uint8"},{"indexed":false,"internalType":"uint256","name":"estimatedCostUSD","type":"uint256"}],"name":"ConsensusSubmitted","type":"event"},{"anonymous":false,"inputs":[{"indexed":true,"internalType":"uint256","name":"requestId","type":"uint256"},{"indexed":false,"internalType":"bytes32","name":"deliveryHash","type":"bytes32"}],"name":"DeliveryConfirmed","type":"event"},{"anonymous":false,"inputs":[{"indexed":true,"internalType":"uint256","name":"requestId","type":"uint256"},{"indexed":false,"internalType":"bool","name":"verified","type":"bool"},{"indexed":false,"internalType":"bytes32","name":"verificationHash","type":"bytes32"}],"name":"DeliveryVerified","type":"event"},{"anonymous":false,"inputs":[{"indexed":true,"internalType":"uint256","name":"requestId","type":"uint256"},{"indexed":true,"internalType":"address","name":"fulfiller","type":"address"},{"indexed":false,"internalType":"uint256","name":"escrowAmount","type":"uint256"}],"name":"FulfillerAssigned","type":"event"},{"anonymous":false,"inputs":[{"indexed":true,"internalType":"address","name":"fulfiller","type":"address"},{"indexed":false,"internalType":"bool","name":"approved","type":"bool"}],"name":"FulfillerStatusChanged","type":"event"},{"anonymous":false,"inputs":[{"indexed":true,"internalType":"uint256","name":"requestId","type":"uint256"},{"indexed":true,"internalType":"address","name":"fulfiller","type":"address"},{"indexed":false,"internalType":"uint256","name":"amount","type":"uint256"}],"name":"PayoutReleased","type":"event"},{"anonymous":false,"inputs":[{"indexed":true,"internalType":"uint256","name":"requestId","type":"uint256"}],"name":"RequestTimedOut","type":"event"},{"anonymous":false,"inputs":[{"indexed":true,"internalType":"uint256","name":"requestId","type":"uint256"},{"indexed":false,"internalType":"bytes32","name":"galileoProofHash","type":"bytes32"},{"indexed":false,"internalType":"bytes32","name":"fdcEventId","type":"bytes32"}],"name":"RequestVerified","type":"event"},{"inputs":[{"internalType":"uint256","name":"","type":"uint256"}],"name":"aidRequests","outputs":[{"internalType":"uint256","name":"id","type":"uint256"},{"internalType":"address","name":"requester","type":"address"},{"internalType":"uint8","name":"aidType","type":"uint8"},{"internalType":"uint8","name":"urgency","type":"uint8"},{"internalType":"int64","name":"lat","type":"int64"},{"internalType":"int64","name":"lng","type":"int64"},{"internalType":"bytes32","name":"detailsHash","type":"bytes32"},{"internalType":"enum IAidChain.RequestStatus","name":"status","type":"uint8"},{"internalType":"uint256","name":"createdAt","type":"uint256"},{"internalType":"bytes32","name":"galileoProofHash","type":"bytes32"},{"internalType":"bytes32","name":"fdcEventId","type":"bytes32"},{"internalType":"bytes32","name":"fdcProofHash","type":"bytes32"},{"internalType":"uint256","name":"verifiedAt","type":"uint256"},{"internalType":"bytes32","name":"consensusHash","type":"bytes32"},{"internalType":"uint8","name":"recommendedAid","type":"uint8"},{"internalType":"uint8","name":"fulfillerType","type":"uint8"},{"internalType":"uint256","name":"estimatedCostUSD","type":"uint256"},{"internalType":"address","name":"fulfiller","type":"address"},{"internalType":"uint256","name":"escrowAmount","type":"uint256"},{"internalType":"uint256","name":"fundedAt","type":"uint256"},{"internalType":"bytes32","name":"deliveryProofHash","type":"bytes32"},{"internalType":"int64","name":"deliveryLat","type":"int64"},{"internalType":"int64","name":"deliveryLng","type":"int64"},{"internalType":"uint256","name":"deliveredAt","type":"uint256"},{"internalType":"bytes32","name":"deliveryVerificationHash","type":"bytes32"},{"internalType":"uint256","name":"settledAt","type":"uint256"}],"stateMutability":"view","type":"function"},{"inputs":[{"internalType":"address","name":"","type":"address"}],"name":"approvedFulfillers","outputs":[{"internalType":"bool","name":"","type":"bool"}],"stateMutability":"view","type":"function"},{"inputs":[{"internalType":"address","name":"","type":"address"}],"name":"approvedPanelOperators","outputs":[{"internalType":"bool","name":"","type":"bool"}],"stateMutability":"view","type":"function"},{"inputs":[{"internalType":"uint256","name":"requestId","type":"uint256"},{"internalType":"address","name":"fulfiller","type":"address"}],"name":"assignFulfiller","outputs":[],"stateMutability":"nonpayable","type":"function"},{"inputs":[{"internalType":"uint256","name":"requestId","type":"uint256"},{"internalType":"bytes32","name":"deliveryHash","type":"bytes32"},{"internalType":"int64","name":"deliveryLat","type":"int64"},{"internalType":"int64","name":"deliveryLng","type":"int64"}],"name":"confirmDelivery","outputs":[],"stateMutability":"nonpayable","type":"function"},{"inputs":[],"name":"fundPool","outputs":[{"internalType":"contract FundPool","name":"","type":"address"}],"stateMutability":"view","type":"function"},{"inputs":[{"internalType":"uint256","name":"requestId","type":"uint256"}],"name":"getRequest","outputs":[{"components":[{"internalType":"uint256","name":"id","type":"uint256"},{"internalType":"address","name":"requester","type":"address"},{"internalType":"uint8","name":"aidType","type":"uint8"},{"internalType":"uint8","name":"urgency","type":"uint8"},{"internalType":"int64","name":"lat","type":"int64"},{"internalType":"int64","name":"lng","type":"int64"},{"internalType":"bytes32","name":"detailsHash","type":"bytes32"},{"internalType":"enum IAidChain.RequestStatus","name":"status","type":"uint8"},{"internalType":"uint256","name":"createdAt","type":"uint256"},{"internalType":"bytes32","name":"galileoProofHash","type":"bytes32"},{"internalType":"bytes32","name":"fdcEventId","type":"bytes32"},{"internalType":"bytes32","name":"fdcProofHash","type":"bytes32"},{"internalType":"uint256","name":"verifiedAt","type":"uint256"},{"internalType":"bytes32","name":"consensusHash","type":"bytes32"},{"internalType":"uint8","name":"recommendedAid","type":"uint8"},{"internalType":"uint8","name":"fulfillerType","type":"uint8"},{"internalType":"uint256","name":"estimatedCostUSD","type":"uint256"},{"internalType":"address","name":"fulfiller","type":"address"},{"internalType":"uint256","name":"escrowAmount","type":"uint256"},{"internalType":"uint256","name":"fundedAt","type":"uint256"},{"internalType":"bytes32","name":"deliveryProofHash","type":"bytes32"},{"internalType":"int64","name":"deliveryLat","type":"int64"},{"internalType":"int64","name":"deliveryLng","type":"int64"},{"internalType":"uint256","name":"deliveredAt","type":"uint256"},{"internalType":"bytes32","name":"deliveryVerificationHash","type":"bytes32"},{"internalType":"uint256","name":"settledAt","type":"uint256"}],"internalType":"struct IAidChain.AidRequest","name":"","type":"tuple"}],"stateMutability":"view","type":"function"},{"inputs":[],"name":"getRequestCount","outputs":[{"internalType":"uint256","name":"","type":"uint256"}],"stateMutability":"view","type":"function"},{"inputs":[{"internalType":"address","name":"user","type":"address"}],"name":"getUserRequests","outputs":[{"internalType":"uint256[]","name":"","type":"uint256[]"}],"stateMutability":"view","type":"function"},{"inputs":[],"name":"nextRequestId","outputs":[{"internalType":"uint256","name":"","type":"uint256"}],"stateMutability":"view","type":"function"},{"inputs":[],"name":"oracleOperator","outputs":[{"internalType":"address","name":"","type":"address"}],"stateMutability":"view","type":"function"},{"inputs":[],"name":"owner","outputs":[{"internalType":"address","name":"","type":"address"}],"stateMutability":"view","type":"function"},{"inputs":[{"internalType":"uint256","name":"requestId","type":"uint256"}],"name":"releasePayout","outputs":[],"stateMutability":"nonpayable","type":"function"},{"inputs":[{"internalType":"uint8","name":"aidType","type":"uint8"},{"internalType":"uint8","name":"urgency","type":"uint8"},{"internalType":"int64","name":"lat","type":"int64"},{"internalType":"int64","name":"lng","type":"int64"},{"internalType":"bytes32","name":"detailsHash","type":"bytes32"}],"name":"requestAid","outputs":[{"internalType":"uint256","name":"requestId","type":"uint256"}],"stateMutability":"nonpayable","type":"function"},{"inputs":[{"internalType":"address","name":"fulfiller","type":"address"},{"internalType":"bool","name":"approved","type":"bool"}],"name":"setFulfiller","outputs":[],"stateMutability":"nonpayable","type":"function"},{"inputs":[{"internalType":"address","name":"_oracle","type":"address"}],"name":"setOracleOperator","outputs":[],"stateMutability":"nonpayable","type":"function"},{"inputs":[{"internalType":"address","name":"operator","type":"address"},{"internalType":"bool","name":"approved","type":"bool"}],"name":"setPanelOperator","outputs":[],"stateMutability":"nonpayable","type":"function"},{"inputs":[{"internalType":"uint256","name":"requestId","type":"uint256"},{"internalType":"bool","name":"approved","type":"bool"},{"internalType":"uint8","name":"recommendedAid","type":"uint8"},{"internalType":"uint8","name":"fulfillerType","type":"uint8"},{"internalType":"uint256","name":"estimatedCostUSD","type":"uint256"},{"internalType":"bytes32","name":"consensusHash","type":"bytes32"},{"internalType":"uint8","name":"nodeCount","type":"uint8"},{"internalType":"uint8","name":"approvalCount","type":"uint8"}],"name":"submitConsensus","outputs":[],"stateMutability":"nonpayable","type":"function"},{"inputs":[{"internalType":"uint256","name":"requestId","type":"uint256"}],"name":"timeoutRequest","outputs":[],"stateMutability":"nonpayable","type":"function"},{"inputs":[{"internalType":"address","name":"","type":"address"},{"internalType":"uint256","name":"","type":"uint256"}],"name":"userRequests","outputs":[{"internalType":"uint256","name":"","type":"uint256"}],"stateMutability":"view","type":"function"},{"inputs":[],"name":"verificationRegistry","outputs":[{"internalType":"contract VerificationRegistry","name":"","type":"address"}],"stateMutability":"view","type":"function"},{"inputs":[{"internalType":"uint256","name":"requestId","type":"uint256"},{"internalType":"bool","name":"verified","type":"bool"},{"internalType":"bytes32","name":"verificationHash","type":"bytes32"}],"name":"verifyDelivery","outputs":[],"stateMutability":"nonpayable","type":"function"},{"inputs":[{"internalType":"uint256","name":"requestId","type":"uint256"},{"internalType":"bytes32","name":"galileoProofHash","type":"bytes32"},{"internalType":"bytes32","name":"fdcEventId","type":"bytes32"},{"internalType":"bytes32","name":"fdcProofHash","type":"bytes32"}],"name":"verifyRequest","outputs":[],"stateMutability":"nonpayable","type":"function"}],"evm":{"bytecode":{"linkReferences":{},"object":"608034620000b657601f62001baa38819003918201601f19168301916001600160401b03831184841017620000bb57808492606094604052833981010312620000b6576200004d81620000d1565b906200006a60406200006260208401620000d1565b9201620000d1565b60018060a01b0319923384600054161760005560018060a01b0392838092168560015416176001551683600254161760025516906003541617600355604051611ac39081620000e78239f35b600080fd5b634e487b7160e01b600052604160045260246000fd5b51906001600160a01b0382168203620000b65756fe6101a080604052600436101561001457600080fd5b600090813560e01c90816311679ef71461189957508063263cb6b6146118435780633458dfb31461173657806338048cbc146116a95780633aceba761461151e5780633fad183414610cf85780634089ac181461132d57806343591494146112215780634a80c6f3146111e25780635411b58d14610f395780635d2ea0ca14610d165780636a84a98514610cf857806370f37d2714610ccf5780637df29c7114610b1c5780638da5cb5b14610af5578063a318318214610a96578063ae2ad11114610a47578063b337cf7414610995578063bf43e85614610826578063c4098ef5146107e7578063c58343ef14610445578063efa4f8d41461041c5763fb0daadd1461011f57600080fd5b346104195760a0366003190112610419576004359060ff82168083036104145760249182359360ff85169182860361041457610159611911565b94610162611921565b600354604051637b1d63b160e11b815233600482015260209992918a908290869082906001600160a01b03165afa9081156104095785916103cf575b501561038b57600587116103475760028611610303576004549760001995868a146102f05760018a0160045589865260058b5260408620938a8555600185019283549060b01b67ffffffffffffffff60b01b169260ff60a01b9060a01b169069ffffffffffffffffffff60a01b1933169061ffff60f01b1617179060ff60a81b9060a81b1617179055600282019067ffffffffffffffff198254169067ffffffffffffffff1617905560843560038201556004810160ff198154169055600542910155338252600687526040822090815492680100000000000000008410156102df57505090610293916001820181556118d4565b819291549060031b9186831b921b191617905560405191825283820152817fb7df983fa8d37af9833a4077c0bce653b30a47b3bc28e189623289c7588f1ad260403393a3604051908152f35b634e487b7160e01b81526041600452fd5b634e487b7160e01b865260116004528486fd5b60405162461bcd60e51b8152600481018a90526019818501527f416964436861696e3a20696e76616c696420757267656e6379000000000000006044820152606490fd5b60405162461bcd60e51b8152600481018a9052601a818501527f416964436861696e3a20696e76616c69642061696420747970650000000000006044820152606490fd5b60405162461bcd60e51b8152600481018a9052601f818501527f416964436861696e3a206964656e74697479206e6f74207665726966696564006044820152606490fd5b90508981813d8311610402575b6103e68183611a6b565b810103126103fe575180151581036103fe573861019e565b8480fd5b503d6103dc565b6040513d87823e3d90fd5b600080fd5b80fd5b50346104195780600319360112610419576003546040516001600160a01b039091168152602090f35b5034610419576020366003190112610419578061032060405161046781611a4e565b8281528260208201528260408201528260608201528260808201528260a08201528260c08201528260e08201528261010082015282610120820152826101408201528261016082015282610180820152826101a0820152826101c0820152826101e08201528261020082015282610220820152826102408201528261026082015282610280820152826102a0820152826102c0820152826102e082015282610300820152015261051c60045460043510611997565b6004358152600560205260408120906040519061053882611a4e565b82548252600183015460018060a01b038116602084015260ff8160a01c16604084015260ff8160a81c16606084015260b01c60070b6080830152600283015460070b60a0830152600383015460c083015260ff60048401541690600a8210156107d357506103409260149160e084015260058101546101008401526006810154610120840152600781015461014084015260088101546101608401526009810154610180840152600a8101546101a084015260ff600b8201548181166101c086015260081c166101e0840152600c81015461020084015260018060a01b03600d82015416610220840152600e810154610240840152600f810154610260840152601081015461028084015260118101548060070b6102a085015260401c60070b6102c084015260128101546102e084015260138101546103008401520154610320820152610320604051918051835260018060a01b03602082015116602084015260ff604082015116604084015260ff6060820151166060840152608081015160070b608084015260a081015160070b60a084015260c081015160c08401526106e960e082015160e0850190611931565b6101008101516101008401526101208101516101208401526101408101516101408401526101608101516101608401526101808101516101808401526101a08101516101a084015260ff6101c0820151166101c084015260ff6101e0820151166101e084015261020081015161020084015260018060a01b03610220820151166102208401526102408101516102408401526102608101516102608401526102808101516102808401526102a081015160070b6102a08401526102c081015160070b6102c08401526102e08101516102e08401526103008101516103008401520151610320820152f35b634e487b7160e01b81526021600452602490fd5b50346104195760203660031901126104195760209060ff906040906001600160a01b036108126118be565b168152600784522054166040519015158152f35b5034610419576020366003190112610419576001546001600160a01b0390600435906108559083163314611954565b6108626004548210611997565b8083526005602052604083209160048301805460ff8116600a8110156109815760060361093c5760089060ff1916179055426014840155806002541684600d850191600e848454169601958654823b156109385760448492836040519586948593634e06bad160e01b8552600485015260248401525af1801561092d57610919575b50507f5621778ab13fbf7130d91ae5035a140b79a6cfd120059c2ea0fec2a5ce6731a69160209154169354604051908152a380f35b61092290611a24565b6103fe5784386108e4565b6040513d84823e3d90fd5b8380fd5b60405162461bcd60e51b815260206004820152601f60248201527f416964436861696e3a2064656c6976657279206e6f74207665726966696564006044820152606490fd5b634e487b7160e01b87526021600452602487fd5b503461041957602080600319360112610a43576001600160a01b036109b86118be565b168252600681526040822060405192838383549182815201908193835284832090835b818110610a2f57505050846109f1910385611a6b565b60405193838594850191818652518092526040850193925b828110610a1857505050500390f35b835185528695509381019392810192600101610a09565b8254845292860192600192830192016109db565b5080fd5b503461041957602036600319011261041957610a616118be565b81546001600160a01b039190610a7a90831633146119e2565b166bffffffffffffffffffffffff60a01b600154161760015580f35b503461041957604036600319011261041957610af2610ab36118be565b610abb611902565b835490916001600160a01b0391610ad590831633146119e2565b1683526008602052604083209060ff801983541691151516179055565b80f35b5034610419578060031936011261041957546040516001600160a01b039091168152602090f35b50346104195760203660031901126104195760043560018060a01b03610b4781600154163314611954565b610b546004548310611997565b818352600560205260408320600481019182549060ff8216600a8110156109815760048114908115610cc4575b5015610c7f57600f830154620151808101809111610c6b57421115610c265785936009600e9360ff191617905560025416910154813b15610c22578291602483926040519485938492632e26e1d960e21b845260048401525af1801561092d57610c0e575b50807f80f32f66463ff726c97765d8dcd5ab6e0587bdbeea298adc3da6cd0a584ee10f91a280f35b610c1790611a24565b610a43578138610be6565b8280fd5b60405162461bcd60e51b815260206004820152601d60248201527f416964436861696e3a2074696d656f7574206e6f7420726561636865640000006044820152606490fd5b634e487b7160e01b87526011600452602487fd5b60405162461bcd60e51b815260206004820152601860248201527f416964436861696e3a2063616e6e6f742074696d656f757400000000000000006044820152606490fd5b600791501438610b81565b50346104195780600319360112610419576002546040516001600160a01b039091168152602090f35b50346104195780600319360112610419576020600454604051908152f35b5034610419576020366003190112610419576040906004358152600560205220610180526101805154600161018051015461010052600261018051015460070b61014052600361018051015460ff600461018051015416600561018051015460ff600661018051015460076101805101546008610180510154600961018051015490600a61018051015492600b61018051015494600c61018051015497610e7d60018060a01b03600d610180510154169a600e6101805101549c600f6101805101549e6010610180510154608052601161018051015460c052601261018051015461016052601361018051015461012052601461018051015460e05260405160a05260a0515260018060a01b036101005116602060a05101528a6101005160a01c16604060a05101528a6101005160a81c16606060a05101526101005160b01c60070b608060a05101526101405160a08051015260c060a051015260e060a0510190611931565b61010060a051015261012060a051015261014060a051015261016060a051015261018060a05101526101a060a05101528181166101c060a051015260081c166101e060a051015261020060a051015261022060a051015261024060a051015261026060a051015260805161028060a051015260c05160070b6102a060a051015260c05160401c60070b6102c060a0510152610160516102e060a05101526101205161030060a051015260e05161032060a051015261034060a051f35b50346104195761010036600319011261041957600435610f57611902565b60443560ff90818116809103610414576064358281168103610414576084359260c43594818616908187036104145760e4359683881680980361041457338a52602094600886528460408c2054161561119d57610fb76004548b10611997565b898b526005865260408b20916004830195865495818716600a8110156111895760010361114b576003116111065784159182159b8c6110c5575b50505015611080579187600c6060999795937fe369d4592ea59e607966f14a4aa7bc01a893ad48820c8326005de63ef6b5f0e89b99979560a435600a830155600b8201908961ff0083549260081b169161ffff19161717905501556000146110725750805460ff191660021790555b6040519384528301526040820152a280f35b60ff19166003179055611060565b60405162461bcd60e51b815260048101879052601f60248201527f416964436861696e3a2073757065726d616a6f72697479206e6f74206d6574006044820152606490fd5b60030291821692509082036110f05760011b906101fe60fe8316921682036110f05711388080610ff1565b634e487b7160e01b600052601160045260246000fd5b60405162461bcd60e51b815260048101899052601c60248201527f416964436861696e3a20696e73756666696369656e74206e6f646573000000006044820152606490fd5b60405162461bcd60e51b8152600481018a90526016602482015275105a5910da185a5b8e881b9bdd081d995c9a599a595960521b6044820152606490fd5b634e487b7160e01b8f52602160045260248ffd5b60405162461bcd60e51b815260048101879052601c60248201527f416964436861696e3a206e6f742070616e656c206f70657261746f72000000006044820152606490fd5b50346104195760203660031901126104195760209060ff906040906001600160a01b0361120d6118be565b168152600884522054166040519015158152f35b5034610419576080366003190112610419576004356024356044359061125260018060a01b03600154163314611954565b61125f6004548410611997565b82845260056020526040842090600482019283549260ff8416600a811015611319576112db577ff8535bc67656faf6d0225ffa12c783218410036cdbd245bd71cf8d0c1dcdf76e946001604095856006850155846007850155606435600885015560ff191617905560094291015582519182526020820152a280f35b60405162461bcd60e51b8152602060048201526016602482015275416964436861696e3a2077726f6e672073746174757360501b6044820152606490fd5b634e487b7160e01b88526021600452602488fd5b5034610419576040366003190112610419576001600160a01b03906024358281169060043590829003610c225761136984600154163314611954565b6113766004548210611997565b8083526020600581526040842094600486019060ff825416600a811015610981576002036114e0578486526007835260ff6040872054161561149d576002541695600c8101968754813b1561149957879160448392604051948593849263c448990360e01b84528b600485015260248401525af1801561148e57611459575b507fd9451e2944a83bd8fd81382a751f86e6c5c14bd1a483ab3c8ae38a903958ea7893949596600d8201876bffffffffffffffffffffffff60a01b825416179055549182600e830155600460ff19825416179055600f42910155604051908152a380f35b956114867fd9451e2944a83bd8fd81382a751f86e6c5c14bd1a483ab3c8ae38a903958ea78959697611a24565b9594936113f5565b6040513d89823e3d90fd5b8780fd5b6064836040519062461bcd60e51b825280600483015260248201527f416964436861696e3a2066756c66696c6c6572206e6f7420617070726f7665646044820152fd5b60405162461bcd60e51b8152600481018490526016602482015275105a5910da185a5b8e881b9bdd08185c1c1c9bdd995960521b6044820152606490fd5b50346104195760803660031901126104195760043560243561153e611911565b90611547611921565b906115556004548510611997565b8385526005602052604085206004810180549460ff8616600a8110156116955760040361165957600d8301546001600160a01b03163303611615577fe556953b59c2418c78d3d4ed740e0887aabeb31533bded7677d7b9c20f7c1e7195602095600592866010870155601186019167ffffffffffffffff83549160401b6fffffffffffffffff0000000000000000169216906fffffffffffffffffffffffffffffffff19161717905560ff1916179055601242910155604051908152a280f35b606460405162461bcd60e51b815260206004820152602060248201527f416964436861696e3a206e6f742061737369676e65642066756c66696c6c65726044820152fd5b60405162461bcd60e51b8152602060048201526014602482015273105a5910da185a5b8e881b9bdd08199d5b99195960621b6044820152606490fd5b634e487b7160e01b89526021600452602489fd5b5034610419576040366003190112610419576116c36118be565b7feeef5a42658fc702ba7e3961561b1d5aa6e6817b1faea1b099913f5c936a0b4c60206116ee611902565b845490936001600160a01b039161170890831633146119e2565b16928385526007825261172a81604087209060ff801983541691151516179055565b6040519015158152a280f35b503461041957606036600319011261041957600435611753611902565b6044359061176c60018060a01b03600154163314611954565b6117796004548410611997565b82845260056020526040842090600482019283549360ff8516600a811015611319576005036117ff577f1070ac3c65c08c451d7821fdaae7a88a75518ac10ed46782ff81505f1a03552d948260136040960155836000146117f15750805460ff191660061790555b825191151582526020820152a280f35b60ff191660071790556117e1565b606460405162461bcd60e51b815260206004820152602060248201527f416964436861696e3a2064656c6976657279206e6f74207375626d69747465646044820152fd5b50346104195760403660031901126104195761185d6118be565b6001600160a01b031681526006602052604081208054602435929083101561041957602061188b84846118d4565b90546040519160031b1c8152f35b905034610a435781600319360112610a43576001546001600160a01b03168152602090f35b600435906001600160a01b038216820361041457565b80548210156118ec5760005260206000200190600090565b634e487b7160e01b600052603260045260246000fd5b60243590811515820361041457565b604435908160070b820361041457565b606435908160070b820361041457565b90600a82101561193e5752565b634e487b7160e01b600052602160045260246000fd5b1561195b57565b60405162461bcd60e51b8152602060048201526014602482015273416964436861696e3a206e6f74206f7261636c6560601b6044820152606490fd5b1561199e57565b606460405162461bcd60e51b815260206004820152602060248201527f416964436861696e3a207265717565737420646f6573206e6f742065786973746044820152fd5b156119e957565b60405162461bcd60e51b815260206004820152601360248201527220b4b221b430b4b71d103737ba1037bbb732b960691b6044820152606490fd5b67ffffffffffffffff8111611a3857604052565b634e487b7160e01b600052604160045260246000fd5b610340810190811067ffffffffffffffff821117611a3857604052565b90601f8019910116810190811067ffffffffffffffff821117611a385760405256fea2646970667358221220bbd670771d266bc87ee37a967d3de32df31519cdfa24ddf76f5e1bcf1f586ca264736f6c63430008180033","opcodes":"PUSH1 0x80 CALLVALUE PUSH3 0xB6 JUMPI PUSH1 0x1F PUSH3 0x1BAA CODESIZE DUP2 SWAP1 SUB SWAP2 DUP3 ADD PUSH1 0x1F NOT AND DUP4 ADD SWAP2 PUSH1 0x1 PUSH1 0x1 PUSH1 0x40 SHL SUB DUP4 GT DUP5 DUP5 LT OR PUSH3 0xBB JUMPI DUP1 DUP5 SWAP3 PUSH1 0x60 SWAP5 PUSH1 0x40 MSTORE DUP4 CODECOPY DUP2 ADD SUB SLT PUSH3 0xB6 JUMPI PUSH3 0x4D DUP2 PUSH3 0xD1 JUMP JUMPDEST SWAP1 PUSH3 0x6A PUSH1 0x40 PUSH3 0x62 PUSH1 0x20 DUP5 ADD PUSH3 0xD1 JUMP JUMPDEST SWAP3 ADD PUSH3 0xD1 JUMP JUMPDEST PUSH1 0x1 DUP1 PUSH1 0xA0 SHL SUB NOT SWAP3 CALLER DUP5 PUSH1 0x0 SLOAD AND OR PUSH1 0x0 SSTORE PUSH1 0x1 DUP1 PUSH1 0xA0 SHL SUB SWAP3 DUP4 DUP1 SWAP3 AND DUP6 PUSH1 0x1 SLOAD AND OR PUSH1 0x1 SSTORE AND DUP4 PUSH1 0x2 SLOAD AND OR PUSH1 0x2 SSTORE AND SWAP1 PUSH1 0x3 SLOAD AND OR PUSH1 0x3 SSTORE PUSH1 0x40 MLOAD PUSH2 0x1AC3 SWAP1 DUP2 PUSH3 0xE7 DUP3 CODECOPY RETURN JUMPDEST PUSH1 0x0 DUP1 REVERT JUMPDEST PUSH4 0x4E487B71 PUSH1 0xE0 SHL PUSH1 0x0 MSTORE PUSH1 0x41 PUSH1 0x4 MSTORE PUSH1 0x24 PUSH1 0x0 REVERT JUMPDEST MLOAD SWAP1 PUSH1 0x1 PUSH1 0x1 PUSH1 0xA0 SHL SUB DUP3 AND DUP3 SUB PUSH3 0xB6 JUMPI JUMP INVALID PUSH2 0x1A0 DUP1 PUSH1 0x40 MSTORE PUSH1 0x4 CALLDATASIZE LT ISZERO PUSH2 0x14 JUMPI PUSH1 0x0 DUP1 REVERT JUMPDEST PUSH1 0x0 SWAP1 DUP2 CALLDATALOAD PUSH1 0xE0 SHR SWAP1 DUP2 PUSH4 0x11679EF7 EQ PUSH2 0x1899 JUMPI POP DUP1 PUSH4 0x263CB6B6 EQ PUSH2 0x1843 JUMPI DUP1 PUSH4 0x3458DFB3 EQ PUSH2 0x1736 JUMPI DUP1 PUSH4 0x38048CBC EQ PUSH2 0x16A9 JUMPI DUP1 PUSH4 0x3ACEBA76 EQ PUSH2 0x151E JUMPI DUP1 PUSH4 0x3FAD1834 EQ PUSH2 0xCF8 JUMPI DUP1 PUSH4 0x4089AC18 EQ PUSH2 0x132D JUMPI DUP1 PUSH4 0x43591494 EQ PUSH2 0x1221 JUMPI DUP1 PUSH4 0x4A80C6F3 EQ PUSH2 0x11E2 JUMPI DUP1 PUSH4 0x5411B58D EQ PUSH2 0xF39 JUMPI DUP1 PUSH4 0x5D2EA0CA EQ PUSH2 0xD16 JUMPI DUP1 PUSH4 0x6A84A985 EQ PUSH2 0xCF8 JUMPI DUP1 PUSH4 0x70F37D27 EQ PUSH2 0xCCF JUMPI DUP1 PUSH4 0x7DF29C71 EQ PUSH2 0xB1C JUMPI DUP1 PUSH4 0x8DA5CB5B EQ PUSH2 0xAF5 JUMPI DUP1 PUSH4 0xA3183182 EQ PUSH2 0xA96 JUMPI DUP1 PUSH4 0xAE2AD111 EQ PUSH2 0xA47 JUMPI DUP1 PUSH4 0xB337CF74 EQ PUSH2 0x995 JUMPI DUP1 PUSH4 0xBF43E856 EQ PUSH2 0x826 JUMPI DUP1 PUSH4 0xC4098EF5 EQ PUSH2 0x7E7 JUMPI DUP1 PUSH4 0xC58343EF EQ PUSH2 0x445 JUMPI DUP1 PUSH4 0xEFA4F8D4 EQ PUSH2 0x41C JUMPI PUSH4 0xFB0DAADD EQ PUSH2 0x11F JUMPI PUSH1 0x0 DUP1 REVERT JUMPDEST CALLVALUE PUSH2 0x419 JUMPI PUSH1 0xA0 CALLDATASIZE PUSH1 0x3 NOT ADD SLT PUSH2 0x419 JUMPI PUSH1 0x4 CALLDATALOAD SWAP1 PUSH1 0xFF DUP3 AND DUP1 DUP4 SUB PUSH2 0x414 JUMPI PUSH1 0x24 SWAP2 DUP3 CALLDATALOAD SWAP4 PUSH1 0xFF DUP6 AND SWAP2 DUP3 DUP7 SUB PUSH2 0x414 JUMPI PUSH2 0x159 PUSH2 0x1911 JUMP JUMPDEST SWAP5 PUSH2 0x162 PUSH2 0x1921 JUMP JUMPDEST PUSH1 0x3 SLOAD PUSH1 0x40 MLOAD PUSH4 0x7B1D63B1 PUSH1 0xE1 SHL DUP2 MSTORE CALLER PUSH1 0x4 DUP3 ADD MSTORE PUSH1 0x20 SWAP10 SWAP3 SWAP2 DUP11 SWAP1 DUP3 SWAP1 DUP7 SWAP1 DUP3 SWAP1 PUSH1 0x1 PUSH1 0x1 PUSH1 0xA0 SHL SUB AND GAS STATICCALL SWAP1 DUP2 ISZERO PUSH2 0x409 JUMPI DUP6 SWAP2 PUSH2 0x3CF JUMPI JUMPDEST POP ISZERO PUSH2 0x38B JUMPI PUSH1 0x5 DUP8 GT PUSH2 0x347 JUMPI PUSH1 0x2 DUP7 GT PUSH2 0x303 JUMPI PUSH1 0x4 SLOAD SWAP8 PUSH1 0x0 NOT SWAP6 DUP7 DUP11 EQ PUSH2 0x2F0 JUMPI PUSH1 0x1 DUP11 ADD PUSH1 0x4 SSTORE DUP10 DUP7 MSTORE PUSH1 0x5 DUP12 MSTORE PUSH1 0x40 DUP7 KECCAK256 SWAP4 DUP11 DUP6 SSTORE PUSH1 0x1 DUP6 ADD SWAP3 DUP4 SLOAD SWAP1 PUSH1 0xB0 SHL PUSH8 0xFFFFFFFFFFFFFFFF PUSH1 0xB0 SHL AND SWAP3 PUSH1 0xFF PUSH1 0xA0 SHL SWAP1 PUSH1 0xA0 SHL AND SWAP1 PUSH10 0xFFFFFFFFFFFFFFFFFFFF PUSH1 0xA0 SHL NOT CALLER AND SWAP1 PUSH2 0xFFFF PUSH1 0xF0 SHL AND OR OR SWAP1 PUSH1 0xFF PUSH1 0xA8 SHL SWAP1 PUSH1 0xA8 SHL AND OR OR SWAP1 SSTORE PUSH1 0x2 DUP3 ADD SWAP1 PUSH8 0xFFFFFFFFFFFFFFFF NOT DUP3 SLOAD AND SWAP1 PUSH8 0xFFFFFFFFFFFFFFFF AND OR SWAP1 SSTORE PUSH1 0x84 CALLDATALOAD PUSH1 0x3 DUP3 ADD SSTORE PUSH1 0x4 DUP2 ADD PUSH1 0xFF NOT DUP2 SLOAD AND SWAP1 SSTORE PUSH1 0x5 TIMESTAMP SWAP2 ADD SSTORE CALLER DUP3 MSTORE PUSH1 0x6 DUP8 MSTORE PUSH1 0x40 DUP3 KECCAK256 SWAP1 DUP2 SLOAD SWAP3 PUSH9 0x10000000000000000 DUP5 LT ISZERO PUSH2 0x2DF JUMPI POP POP SWAP1 PUSH2 0x293 SWAP2 PUSH1 0x1 DUP3 ADD DUP2 SSTORE PUSH2 0x18D4 JUMP JUMPDEST DUP2 SWAP3 SWAP2 SLOAD SWAP1 PUSH1 0x3 SHL SWAP2 DUP7 DUP4 SHL SWAP3 SHL NOT AND OR SWAP1 SSTORE PUSH1 0x40 MLOAD SWAP2 DUP3 MSTORE DUP4 DUP3 ADD MSTORE DUP2 PUSH32 0xB7DF983FA8D37AF9833A4077C0BCE653B30A47B3BC28E189623289C7588F1AD2 PUSH1 0x40 CALLER SWAP4 LOG3 PUSH1 0x40 MLOAD SWAP1 DUP2 MSTORE RETURN JUMPDEST PUSH4 0x4E487B71 PUSH1 0xE0 SHL DUP2 MSTORE PUSH1 0x41 PUSH1 0x4 MSTORE REVERT JUMPDEST PUSH4 0x4E487B71 PUSH1 0xE0 SHL DUP7 MSTORE PUSH1 0x11 PUSH1 0x4 MSTORE DUP5 DUP7 REVERT JUMPDEST PUSH1 0x40 MLOAD PUSH3 0x461BCD PUSH1 0xE5 SHL DUP2 MSTORE PUSH1 0x4 DUP2 ADD DUP11 SWAP1 MSTORE PUSH1 0x19 DUP2 DUP6 ADD MSTORE PUSH32 0x416964436861696E3A20696E76616C696420757267656E637900000000000000 PUSH1 0x44 DUP3 ADD MSTORE PUSH1 0x64 SWAP1 REVERT JUMPDEST PUSH1 0x40 MLOAD PUSH3 0x461BCD PUSH1 0xE5 SHL DUP2 MSTORE PUSH1 0x4 DUP2 ADD DUP11 SWAP1 MSTORE PUSH1 0x1A DUP2 DUP6 ADD MSTORE PUSH32 0x416964436861696E3A20696E76616C6964206169642074797065000000000000 PUSH1 0x44 DUP3 ADD MSTORE PUSH1 0x64 SWAP1 REVERT JUMPDEST PUSH1 0x40 MLOAD PUSH3 0x461BCD PUSH1 0xE5 SHL DUP2 MSTORE PUSH1 0x4 DUP2 ADD DUP11 SWAP1 MSTORE PUSH1 0x1F DUP2 DUP6 ADD MSTORE PUSH32 0x416964436861696E3A206964656E74697479206E6F7420766572696669656400 PUSH1 0x44 DUP3 ADD MSTORE PUSH1 0x64 SWAP1 REVERT JUMPDEST SWAP1 POP DUP10 DUP2 DUP2 RETURNDATASIZE DUP4 GT PUSH2 0x402 JUMPI JUMPDEST PUSH2 0x3E6 DUP2 DUP4 PUSH2 0x1A6B JUMP JUMPDEST DUP2 ADD SUB SLT PUSH2 0x3FE JUMPI MLOAD DUP1 ISZERO ISZERO DUP2 SUB PUSH2 0x3FE JUMPI CODESIZE PUSH2 0x19E JUMP JUMPDEST DUP5 DUP1 REVERT JUMPDEST POP RETURNDATASIZE PUSH2 0x3DC JUMP JUMPDEST PUSH1 0x40 MLOAD RETURNDATASIZE DUP8 DUP3 RETURNDATACOPY RETURNDATASIZE SWAP1 REVERT JUMPDEST PUSH1 0x0 DUP1 REVERT JUMPDEST DUP1 REVERT JUMPDEST POP CALLVALUE PUSH2 0x419 JUMPI DUP1 PUSH1 0x3 NOT CALLDATASIZE ADD SLT PUSH2 0x419 JUMPI PUSH1 0x3 SLOAD PUSH1 0x40 MLOAD PUSH1 0x1 PUSH1 0x1 PUSH1 0xA0 SHL SUB SWAP1 SWAP2 AND DUP2 MSTORE PUSH1 0x20 SWAP1 RETURN JUMPDEST POP CALLVALUE PUSH2 0x419 JUMPI PUSH1 0x20 CALLDATASIZE PUSH1 0x3 NOT ADD SLT PUSH2 0x419 JUMPI DUP1 PUSH2 0x320 PUSH1 0x40 MLOAD PUSH2 0x467 DUP2 PUSH2 0x1A4E JUMP JUMPDEST DUP3 DUP2 MSTORE DUP3 PUSH1 0x20 DUP3 ADD MSTORE DUP3 PUSH1 0x40 DUP3 ADD MSTORE DUP3 PUSH1 0x60 DUP3 ADD MSTORE DUP3 PUSH1 0x80 DUP3 ADD MSTORE DUP3 PUSH1 0xA0 DUP3 ADD MSTORE DUP3 PUSH1 0xC0 DUP3 ADD MSTORE DUP3 PUSH1 0xE0 DUP3 ADD MSTORE DUP3 PUSH2 0x100 DUP3 ADD MSTORE DUP3 PUSH2 0x120 DUP3 ADD MSTORE DUP3 PUSH2 0x140 DUP3 ADD MSTORE DUP3 PUSH2 0x160 DUP3 ADD MSTORE DUP3 PUSH2 0x180 DUP3 ADD MSTORE DUP3 PUSH2 0x1A0 DUP3 ADD MSTORE DUP3 PUSH2 0x1C0 DUP3 ADD MSTORE DUP3 PUSH2 0x1E0 DUP3 ADD MSTORE DUP3 PUSH2 0x200 DUP3 ADD MSTORE DUP3 PUSH2 0x220 DUP3 ADD MSTORE DUP3 PUSH2 0x240 DUP3 ADD MSTORE DUP3 PUSH2 0x260 DUP3 ADD MSTORE DUP3 PUSH2 0x280 DUP3 ADD MSTORE DUP3 PUSH2 0x2A0 DUP3 ADD MSTORE DUP3 PUSH2 0x2C0 DUP3 ADD MSTORE DUP3 PUSH2 0x2E0 DUP3 ADD MSTORE DUP3 PUSH2 0x300 DUP3 ADD MSTORE ADD MSTORE PUSH2 0x51C PUSH1 0x4 SLOAD PUSH1 0x4 CALLDATALOAD LT PUSH2 0x1997 JUMP JUMPDEST PUSH1 0x4 CALLDATALOAD DUP2 MSTORE PUSH1 0x5 PUSH1 0x20 MSTORE PUSH1 0x40 DUP2 KECCAK256 SWAP1 PUSH1 0x40 MLOAD SWAP1 PUSH2 0x538 DUP3 PUSH2 0x1A4E JUMP JUMPDEST DUP3 SLOAD DUP3 MSTORE PUSH1 0x1 DUP4 ADD SLOAD PUSH1 0x1 DUP1 PUSH1 0xA0 SHL SUB DUP2 AND PUSH1 0x20 DUP5 ADD MSTORE PUSH1 0xFF DUP2 PUSH1 0xA0 SHR AND PUSH1 0x40 DUP5 ADD MSTORE PUSH1 0xFF DUP2 PUSH1 0xA8 SHR AND PUSH1 0x60 DUP5 ADD MSTORE PUSH1 0xB0 SHR PUSH1 0x7 SIGNEXTEND PUSH1 0x80 DUP4 ADD MSTORE PUSH1 0x2 DUP4 ADD SLOAD PUSH1 0x7 SIGNEXTEND PUSH1 0xA0 DUP4 ADD MSTORE PUSH1 0x3 DUP4 ADD SLOAD PUSH1 0xC0 DUP4 ADD MSTORE PUSH1 0xFF PUSH1 0x4 DUP5 ADD SLOAD AND SWAP1 PUSH1 0xA DUP3 LT ISZERO PUSH2 0x7D3 JUMPI POP PUSH2 0x340 SWAP3 PUSH1 0x14 SWAP2 PUSH1 0xE0 DUP5 ADD MSTORE PUSH1 0x5 DUP2 ADD SLOAD PUSH2 0x100 DUP5 ADD MSTORE PUSH1 0x6 DUP2 ADD SLOAD PUSH2 0x120 DUP5 ADD MSTORE PUSH1 0x7 DUP2 ADD SLOAD PUSH2 0x140 DUP5 ADD MSTORE PUSH1 0x8 DUP2 ADD SLOAD PUSH2 0x160 DUP5 ADD MSTORE PUSH1 0x9 DUP2 ADD SLOAD PUSH2 0x180 DUP5 ADD MSTORE PUSH1 0xA DUP2 ADD SLOAD PUSH2 0x1A0 DUP5 ADD MSTORE PUSH1 0xFF PUSH1 0xB DUP3 ADD SLOAD DUP2 DUP2 AND PUSH2 0x1C0 DUP7 ADD MSTORE PUSH1 0x8 SHR AND PUSH2 0x1E0 DUP5 ADD MSTORE PUSH1 0xC DUP2 ADD SLOAD PUSH2 0x200 DUP5 ADD MSTORE PUSH1 0x1 DUP1 PUSH1 0xA0 SHL SUB PUSH1 0xD DUP3 ADD SLOAD AND PUSH2 0x220 DUP5 ADD MSTORE PUSH1 0xE DUP2 ADD SLOAD PUSH2 0x240 DUP5 ADD MSTORE PUSH1 0xF DUP2 ADD SLOAD PUSH2 0x260 DUP5 ADD MSTORE PUSH1 0x10 DUP2 ADD SLOAD PUSH2 0x280 DUP5 ADD MSTORE PUSH1 0x11 DUP2 ADD SLOAD DUP1 PUSH1 0x7 SIGNEXTEND PUSH2 0x2A0 DUP6 ADD MSTORE PUSH1 0x40 SHR PUSH1 0x7 SIGNEXTEND PUSH2 0x2C0 DUP5 ADD MSTORE PUSH1 0x12 DUP2 ADD SLOAD PUSH2 0x2E0 DUP5 ADD MSTORE PUSH1 0x13 DUP2 ADD SLOAD PUSH2 0x300 DUP5 ADD MSTORE ADD SLOAD PUSH2 0x320 DUP3 ADD MSTORE PUSH2 0x320 PUSH1 0x40 MLOAD SWAP2 DUP1 MLOAD DUP4 MSTORE PUSH1 0x1 DUP1 PUSH1 0xA0 SHL SUB PUSH1 0x20 DUP3 ADD MLOAD AND PUSH1 0x20 DUP5 ADD MSTORE PUSH1 0xFF PUSH1 0x40 DUP3 ADD MLOAD AND PUSH1 0x40 DUP5 ADD MSTORE PUSH1 0xFF PUSH1 0x60 DUP3 ADD MLOAD AND PUSH1 0x60 DUP5 ADD MSTORE PUSH1 0x80 DUP2 ADD MLOAD PUSH1 0x7 SIGNEXTEND PUSH1 0x80 DUP5 ADD MSTORE PUSH1 0xA0 DUP2 ADD MLOAD PUSH1 0x7 SIGNEXTEND PUSH1 0xA0 DUP5 ADD MSTORE PUSH1 0xC0 DUP2 ADD MLOAD PUSH1 0xC0 DUP5 ADD MSTORE PUSH2 0x6E9 PUSH1 0xE0 DUP3 ADD MLOAD PUSH1 0xE0 DUP6 ADD SWAP1 PUSH2 0x1931 JUMP JUMPDEST PUSH2 0x100 DUP2 ADD MLOAD PUSH2 0x100 DUP5 ADD MSTORE PUSH2 0x120 DUP2 ADD MLOAD PUSH2 0x120 DUP5 ADD MSTORE PUSH2 0x140 DUP2 ADD MLOAD PUSH2 0x140 DUP5 ADD MSTORE PUSH2 0x160 DUP2 ADD MLOAD PUSH2 0x160 DUP5 ADD MSTORE PUSH2 0x180 DUP2 ADD MLOAD PUSH2 0x180 DUP5 ADD MSTORE PUSH2 0x1A0 DUP2 ADD MLOAD PUSH2 0x1A0 DUP5 ADD MSTORE PUSH1 0xFF PUSH2 0x1C0 DUP3 ADD MLOAD AND PUSH2 0x1C0 DUP5 ADD MSTORE PUSH1 0xFF PUSH2 0x1E0 DUP3 ADD MLOAD AND PUSH2 0x1E0 DUP5 ADD MSTORE PUSH2 0x200 DUP2 ADD MLOAD PUSH2 0x200 DUP5 ADD MSTORE PUSH1 0x1 DUP1 PUSH1 0xA0 SHL SUB PUSH2 0x220 DUP3 ADD MLOAD AND PUSH2 0x220 DUP5 ADD MSTORE PUSH2 0x240 DUP2 ADD MLOAD PUSH2 0x240 DUP5 ADD MSTORE PUSH2 0x260 DUP2 ADD MLOAD PUSH2 0x260 DUP5 ADD MSTORE PUSH2 0x280 DUP2 ADD MLOAD PUSH2 0x280 DUP5 ADD MSTORE PUSH2 0x2A0 DUP2 ADD MLOAD PUSH1 0x7 SIGNEXTEND PUSH2 0x2A0 DUP5 ADD MSTORE PUSH2 0x2C0 DUP2 ADD MLOAD PUSH1 0x7 SIGNEXTEND PUSH2 0x2C0 DUP5 ADD MSTORE PUSH2 0x2E0 DUP2 ADD MLOAD PUSH2 0x2E0 DUP5 ADD MSTORE PUSH2 0x300 DUP2 ADD MLOAD PUSH2 0x300 DUP5 ADD MSTORE ADD MLOAD PUSH2 0x320 DUP3 ADD MSTORE RETURN JUMPDEST PUSH4 0x4E487B71 PUSH1 0xE0 SHL DUP2 MSTORE PUSH1 0x21 PUSH1 0x4 MSTORE PUSH1 0x24 SWAP1 REVERT JUMPDEST POP CALLVALUE PUSH2 0x419 JUMPI PUSH1 0x20 CALLDATASIZE PUSH1 0x3 NOT ADD SLT PUSH2 0x419 JUMPI PUSH1 0x20 SWAP1 PUSH1 0xFF SWAP1 PUSH1 0x40 SWAP1 PUSH1 0x1 PUSH1 0x1 PUSH1 0xA0 SHL SUB PUSH2 0x812 PUSH2 0x18BE JUMP JUMPDEST AND DUP2 MSTORE PUSH1 0x7 DUP5 MSTORE KECCAK256 SLOAD AND PUSH1 0x40 MLOAD SWAP1 ISZERO ISZERO DUP2 MSTORE RETURN JUMPDEST POP CALLVALUE PUSH2 0x419 JUMPI PUSH1 0x20 CALLDATASIZE PUSH1 0x3 NOT ADD SLT PUSH2 0x419 JUMPI PUSH1 0x1 SLOAD PUSH1 0x1 PUSH1 0x1 PUSH1 0xA0 SHL SUB SWAP1 PUSH1 0x4 CALLDATALOAD SWAP1 PUSH2 0x855 SWAP1 DUP4 AND CALLER EQ PUSH2 0x1954 JUMP JUMPDEST PUSH2 0x862 PUSH1 0x4 SLOAD DUP3 LT PUSH2 0x1997 JUMP JUMPDEST DUP1 DUP4 MSTORE PUSH1 0x5 PUSH1 0x20 MSTORE PUSH1 0x40 DUP4 KECCAK256 SWAP2 PUSH1 0x4 DUP4 ADD DUP1 SLOAD PUSH1 0xFF DUP2 AND PUSH1 0xA DUP2 LT ISZERO PUSH2 0x981 JUMPI PUSH1 0x6 SUB PUSH2 0x93C JUMPI PUSH1 0x8 SWAP1 PUSH1 0xFF NOT AND OR SWAP1 SSTORE TIMESTAMP PUSH1 0x14 DUP5 ADD SSTORE DUP1 PUSH1 0x2 SLOAD AND DUP5 PUSH1 0xD DUP6 ADD SWAP2 PUSH1 0xE DUP5 DUP5 SLOAD AND SWAP7 ADD SWAP6 DUP7 SLOAD DUP3 EXTCODESIZE ISZERO PUSH2 0x938 JUMPI PUSH1 0x44 DUP5 SWAP3 DUP4 PUSH1 0x40 MLOAD SWAP6 DUP7 SWAP5 DUP6 SWAP4 PUSH4 0x4E06BAD1 PUSH1 0xE0 SHL DUP6 MSTORE PUSH1 0x4 DUP6 ADD MSTORE PUSH1 0x24 DUP5 ADD MSTORE GAS CALL DUP1 ISZERO PUSH2 0x92D JUMPI PUSH2 0x919 JUMPI JUMPDEST POP POP PUSH32 0x5621778AB13FBF7130D91AE5035A140B79A6CFD120059C2EA0FEC2A5CE6731A6 SWAP2 PUSH1 0x20 SWAP2 SLOAD AND SWAP4 SLOAD PUSH1 0x40 MLOAD SWAP1 DUP2 MSTORE LOG3 DUP1 RETURN JUMPDEST PUSH2 0x922 SWAP1 PUSH2 0x1A24 JUMP JUMPDEST PUSH2 0x3FE JUMPI DUP5 CODESIZE PUSH2 0x8E4 JUMP JUMPDEST PUSH1 0x40 MLOAD RETURNDATASIZE DUP5 DUP3 RETURNDATACOPY RETURNDATASIZE SWAP1 REVERT JUMPDEST DUP4 DUP1 REVERT JUMPDEST PUSH1 0x40 MLOAD PUSH3 0x461BCD PUSH1 0xE5 SHL DUP2 MSTORE PUSH1 0x20 PUSH1 0x4 DUP3 ADD MSTORE PUSH1 0x1F PUSH1 0x24 DUP3 ADD MSTORE PUSH32 0x416964436861696E3A2064656C6976657279206E6F7420766572696669656400 PUSH1 0x44 DUP3 ADD MSTORE PUSH1 0x64 SWAP1 REVERT JUMPDEST PUSH4 0x4E487B71 PUSH1 0xE0 SHL DUP8 MSTORE PUSH1 0x21 PUSH1 0x4 MSTORE PUSH1 0x24 DUP8 REVERT JUMPDEST POP CALLVALUE PUSH2 0x419 JUMPI PUSH1 0x20 DUP1 PUSH1 0x3 NOT CALLDATASIZE ADD SLT PUSH2 0xA43 JUMPI PUSH1 0x1 PUSH1 0x1 PUSH1 0xA0 SHL SUB PUSH2 0x9B8 PUSH2 0x18BE JUMP JUMPDEST AND DUP3 MSTORE PUSH1 0x6 DUP2 MSTORE PUSH1 0x40 DUP3 KECCAK256 PUSH1 0x40 MLOAD SWAP3 DUP4 DUP4 DUP4 SLOAD SWAP2 DUP3 DUP2 MSTORE ADD SWAP1 DUP2 SWAP4 DUP4 MSTORE DUP5 DUP4 KECCAK256 SWAP1 DUP4 JUMPDEST DUP2 DUP2 LT PUSH2 0xA2F JUMPI POP POP POP DUP5 PUSH2 0x9F1 SWAP2 SUB DUP6 PUSH2 0x1A6B JUMP JUMPDEST PUSH1 0x40 MLOAD SWAP4 DUP4 DUP6 SWAP5 DUP6 ADD SWAP2 DUP2 DUP7 MSTORE MLOAD DUP1 SWAP3 MSTORE PUSH1 0x40 DUP6 ADD SWAP4 SWAP3 JUMPDEST DUP3 DUP2 LT PUSH2 0xA18 JUMPI POP POP POP POP SUB SWAP1 RETURN JUMPDEST DUP4 MLOAD DUP6 MSTORE DUP7 SWAP6 POP SWAP4 DUP2 ADD SWAP4 SWAP3 DUP2 ADD SWAP3 PUSH1 0x1 ADD PUSH2 0xA09 JUMP JUMPDEST DUP3 SLOAD DUP5 MSTORE SWAP3 DUP7 ADD SWAP3 PUSH1 0x1 SWAP3 DUP4 ADD SWAP3 ADD PUSH2 0x9DB JUMP JUMPDEST POP DUP1 REVERT JUMPDEST POP CALLVALUE PUSH2 0x419 JUMPI PUSH1 0x20 CALLDATASIZE PUSH1 0x3 NOT ADD SLT PUSH2 0x419 JUMPI PUSH2 0xA61 PUSH2 0x18BE JUMP JUMPDEST DUP2 SLOAD PUSH1 0x1 PUSH1 0x1 PUSH1 0xA0 SHL SUB SWAP2 SWAP1 PUSH2 0xA7A SWAP1 DUP4 AND CALLER EQ PUSH2 0x19E2 JUMP JUMPDEST AND PUSH12 0xFFFFFFFFFFFFFFFFFFFFFFFF PUSH1 0xA0 SHL PUSH1 0x1 SLOAD AND OR PUSH1 0x1 SSTORE DUP1 RETURN JUMPDEST POP CALLVALUE PUSH2 0x419 JUMPI PUSH1 0x40 CALLDATASIZE PUSH1 0x3 NOT ADD SLT PUSH2 0x419 JUMPI PUSH2 0xAF2 PUSH2 0xAB3 PUSH2 0x18BE JUMP JUMPDEST PUSH2 0xABB PUSH2 0x1902 JUMP JUMPDEST DUP4 SLOAD SWAP1 SWAP2 PUSH1 0x1 PUSH1 0x1 PUSH1 0xA0 SHL SUB SWAP2 PUSH2 0xAD5 SWAP1 DUP4 AND CALLER EQ PUSH2 0x19E2 JUMP JUMPDEST AND DUP4 MSTORE PUSH1 0x8 PUSH1 0x20 MSTORE PUSH1 0x40 DUP4 KECCAK256 SWAP1 PUSH1 0xFF DUP1 NOT DUP4 SLOAD AND SWAP2 ISZERO ISZERO AND OR SWAP1 SSTORE JUMP JUMPDEST DUP1 RETURN JUMPDEST POP CALLVALUE PUSH2 0x419 JUMPI DUP1 PUSH1 0x3 NOT CALLDATASIZE ADD SLT PUSH2 0x419 JUMPI SLOAD PUSH1 0x40 MLOAD PUSH1 0x1 PUSH1 0x1 PUSH1 0xA0 SHL SUB SWAP1 SWAP2 AND DUP2 MSTORE PUSH1 0x20 SWAP1 RETURN JUMPDEST POP CALLVALUE PUSH2 0x419 JUMPI PUSH1 0x20 CALLDATASIZE PUSH1 0x3 NOT ADD SLT PUSH2 0x419 JUMPI PUSH1 0x4 CALLDATALOAD PUSH1 0x1 DUP1 PUSH1 0xA0 SHL SUB PUSH2 0xB47 DUP2 PUSH1 0x1 SLOAD AND CALLER EQ PUSH2 0x1954 JUMP JUMPDEST PUSH2 0xB54 PUSH1 0x4 SLOAD DUP4 LT PUSH2 0x1997 JUMP JUMPDEST DUP2 DUP4 MSTORE PUSH1 0x5 PUSH1 0x20 MSTORE PUSH1 0x40 DUP4 KECCAK256 PUSH1 0x4 DUP2 ADD SWAP2 DUP3 SLOAD SWAP1 PUSH1 0xFF DUP3 AND PUSH1 0xA DUP2 LT ISZERO PUSH2 0x981 JUMPI PUSH1 0x4 DUP2 EQ SWAP1 DUP2 ISZERO PUSH2 0xCC4 JUMPI JUMPDEST POP ISZERO PUSH2 0xC7F JUMPI PUSH1 0xF DUP4 ADD SLOAD PUSH3 0x15180 DUP2 ADD DUP1 SWAP2 GT PUSH2 0xC6B JUMPI TIMESTAMP GT ISZERO PUSH2 0xC26 JUMPI DUP6 SWAP4 PUSH1 0x9 PUSH1 0xE SWAP4 PUSH1 0xFF NOT AND OR SWAP1 SSTORE PUSH1 0x2 SLOAD AND SWAP2 ADD SLOAD DUP2 EXTCODESIZE ISZERO PUSH2 0xC22 JUMPI DUP3 SWAP2 PUSH1 0x24 DUP4 SWAP3 PUSH1 0x40 MLOAD SWAP5 DUP6 SWAP4 DUP5 SWAP3 PUSH4 0x2E26E1D9 PUSH1 0xE2 SHL DUP5 MSTORE PUSH1 0x4 DUP5 ADD MSTORE GAS CALL DUP1 ISZERO PUSH2 0x92D JUMPI PUSH2 0xC0E JUMPI JUMPDEST POP DUP1 PUSH32 0x80F32F66463FF726C97765D8DCD5AB6E0587BDBEEA298ADC3DA6CD0A584EE10F SWAP2 LOG2 DUP1 RETURN JUMPDEST PUSH2 0xC17 SWAP1 PUSH2 0x1A24 JUMP JUMPDEST PUSH2 0xA43 JUMPI DUP2 CODESIZE PUSH2 0xBE6 JUMP JUMPDEST DUP3 DUP1 REVERT JUMPDEST PUSH1 0x40 MLOAD PUSH3 0x461BCD PUSH1 0xE5 SHL DUP2 MSTORE PUSH1 0x20 PUSH1 0x4 DUP3 ADD MSTORE PUSH1 0x1D PUSH1 0x24 DUP3 ADD MSTORE PUSH32 0x416964436861696E3A2074696D656F7574206E6F742072656163686564000000 PUSH1 0x44 DUP3 ADD MSTORE PUSH1 0x64 SWAP1 REVERT JUMPDEST PUSH4 0x4E487B71 PUSH1 0xE0 SHL DUP8 MSTORE PUSH1 0x11 PUSH1 0x4 MSTORE PUSH1 0x24 DUP8 REVERT JUMPDEST PUSH1 0x40 MLOAD PUSH3 0x461BCD PUSH1 0xE5 SHL DUP2 MSTORE PUSH1 0x20 PUSH1 0x4 DUP3 ADD MSTORE PUSH1 0x18 PUSH1 0x24 DUP3 ADD MSTORE PUSH32 0x416964436861696E3A2063616E6E6F742074696D656F75740000000000000000 PUSH1 0x44 DUP3 ADD MSTORE PUSH1 0x64 SWAP1 REVERT JUMPDEST PUSH1 0x7 SWAP2 POP EQ CODESIZE PUSH2 0xB81 JUMP JUMPDEST POP CALLVALUE PUSH2 0x419 JUMPI DUP1 PUSH1 0x3 NOT CALLDATASIZE ADD SLT PUSH2 0x419 JUMPI PUSH1 0x2 SLOAD PUSH1 0x40 MLOAD PUSH1 0x1 PUSH1 0x1 PUSH1 0xA0 SHL SUB SWAP1 SWAP2 AND DUP2 MSTORE PUSH1 0x20 SWAP1 RETURN JUMPDEST POP CALLVALUE PUSH2 0x419 JUMPI DUP1 PUSH1 0x3 NOT CALLDATASIZE ADD SLT PUSH2 0x419 JUMPI PUSH1 0x20 PUSH1 0x4 SLOAD PUSH1 0x40 MLOAD SWAP1 DUP2 MSTORE RETURN JUMPDEST POP CALLVALUE PUSH2 0x419 JUMPI PUSH1 0x20 CALLDATASIZE PUSH1 0x3 NOT ADD SLT PUSH2 0x419 JUMPI PUSH1 0x40 SWAP1 PUSH1 0x4 CALLDATALOAD DUP2 MSTORE PUSH1 0x5 PUSH1 0x20 MSTORE KECCAK256 PUSH2 0x180 MSTORE PUSH2 0x180 MLOAD SLOAD PUSH1 0x1 PUSH2 0x180 MLOAD ADD SLOAD PUSH2 0x100 MSTORE PUSH1 0x2 PUSH2 0x180 MLOAD ADD SLOAD PUSH1 0x7 SIGNEXTEND PUSH2 0x140 MSTORE PUSH1 0x3 PUSH2 0x180 MLOAD ADD SLOAD PUSH1 0xFF PUSH1 0x4 PUSH2 0x180 MLOAD ADD SLOAD AND PUSH1 0x5 PUSH2 0x180 MLOAD ADD SLOAD PUSH1 0xFF PUSH1 0x6 PUSH2 0x180 MLOAD ADD SLOAD PUSH1 0x7 PUSH2 0x180 MLOAD ADD SLOAD PUSH1 0x8 PUSH2 0x180 MLOAD ADD SLOAD PUSH1 0x9 PUSH2 0x180 MLOAD ADD SLOAD SWAP1 PUSH1 0xA PUSH2 0x180 MLOAD ADD SLOAD SWAP3 PUSH1 0xB PUSH2 0x180 MLOAD ADD SLOAD SWAP5 PUSH1 0xC PUSH2 0x180 MLOAD ADD SLOAD SWAP8 PUSH2 0xE7D PUSH1 0x1 DUP1 PUSH1 0xA0 SHL SUB PUSH1 0xD PUSH2 0x180 MLOAD ADD SLOAD AND SWAP11 PUSH1 0xE PUSH2 0x180 MLOAD ADD SLOAD SWAP13 PUSH1 0xF PUSH2 0x180 MLOAD ADD SLOAD SWAP15 PUSH1 0x10 PUSH2 0x180 MLOAD ADD SLOAD PUSH1 0x80 MSTORE PUSH1 0x11 PUSH2 0x180 MLOAD ADD SLOAD PUSH1 0xC0 MSTORE PUSH1 0x12 PUSH2 0x180 MLOAD ADD SLOAD PUSH2 0x160 MSTORE PUSH1 0x13 PUSH2 0x180 MLOAD ADD SLOAD PUSH2 0x120 MSTORE PUSH1 0x14 PUSH2 0x180 MLOAD ADD SLOAD PUSH1 0xE0 MSTORE PUSH1 0x40 MLOAD PUSH1 0xA0 MSTORE PUSH1 0xA0 MLOAD MSTORE PUSH1 0x1 DUP1 PUSH1 0xA0 SHL SUB PUSH2 0x100 MLOAD AND PUSH1 0x20 PUSH1 0xA0 MLOAD ADD MSTORE DUP11 PUSH2 0x100 MLOAD PUSH1 0xA0 SHR AND PUSH1 0x40 PUSH1 0xA0 MLOAD ADD MSTORE DUP11 PUSH2 0x100 MLOAD PUSH1 0xA8 SHR AND PUSH1 0x60 PUSH1 0xA0 MLOAD ADD MSTORE PUSH2 0x100 MLOAD PUSH1 0xB0 SHR PUSH1 0x7 SIGNEXTEND PUSH1 0x80 PUSH1 0xA0 MLOAD ADD MSTORE PUSH2 0x140 MLOAD PUSH1 0xA0 DUP1 MLOAD ADD MSTORE PUSH1 0xC0 PUSH1 0xA0 MLOAD ADD MSTORE PUSH1 0xE0 PUSH1 0xA0 MLOAD ADD SWAP1 PUSH2 0x1931 JUMP JUMPDEST PUSH2 0x100 PUSH1 0xA0 MLOAD ADD MSTORE PUSH2 0x120 PUSH1 0xA0 MLOAD ADD MSTORE PUSH2 0x140 PUSH1 0xA0 MLOAD ADD MSTORE PUSH2 0x160 PUSH1 0xA0 MLOAD ADD MSTORE PUSH2 0x180 PUSH1 0xA0 MLOAD ADD MSTORE PUSH2 0x1A0 PUSH1 0xA0 MLOAD ADD MSTORE DUP2 DUP2 AND PUSH2 0x1C0 PUSH1 0xA0 MLOAD ADD MSTORE PUSH1 0x8 SHR AND PUSH2 0x1E0 PUSH1 0xA0 MLOAD ADD MSTORE PUSH2 0x200 PUSH1 0xA0 MLOAD ADD MSTORE PUSH2 0x220 PUSH1 0xA0 MLOAD ADD MSTORE PUSH2 0x240 PUSH1 0xA0 MLOAD ADD MSTORE PUSH2 0x260 PUSH1 0xA0 MLOAD ADD MSTORE PUSH1 0x80 MLOAD PUSH2 0x280 PUSH1 0xA0 MLOAD ADD MSTORE PUSH1 0xC0 MLOAD PUSH1 0x7 SIGNEXTEND PUSH2 0x2A0 PUSH1 0xA0 MLOAD ADD MSTORE PUSH1 0xC0 MLOAD PUSH1 0x40 SHR PUSH1 0x7 SIGNEXTEND PUSH2 0x2C0 PUSH1 0xA0 MLOAD ADD MSTORE PUSH2 0x160 MLOAD PUSH2 0x2E0 PUSH1 0xA0 MLOAD ADD MSTORE PUSH2 0x120 MLOAD PUSH2 0x300 PUSH1 0xA0 MLOAD ADD MSTORE PUSH1 0xE0 MLOAD PUSH2 0x320 PUSH1 0xA0 MLOAD ADD MSTORE PUSH2 0x340 PUSH1 0xA0 MLOAD RETURN JUMPDEST POP CALLVALUE PUSH2 0x419 JUMPI PUSH2 0x100 CALLDATASIZE PUSH1 0x3 NOT ADD SLT PUSH2 0x419 JUMPI PUSH1 0x4 CALLDATALOAD PUSH2 0xF57 PUSH2 0x1902 JUMP JUMPDEST PUSH1 0x44 CALLDATALOAD PUSH1 0xFF SWAP1 DUP2 DUP2 AND DUP1 SWAP2 SUB PUSH2 0x414 JUMPI PUSH1 0x64 CALLDATALOAD DUP3 DUP2 AND DUP2 SUB PUSH2 0x414 JUMPI PUSH1 0x84 CALLDATALOAD SWAP3 PUSH1 0xC4 CALLDATALOAD SWAP5 DUP2 DUP7 AND SWAP1 DUP2 DUP8 SUB PUSH2 0x414 JUMPI PUSH1 0xE4 CALLDATALOAD SWAP7 DUP4 DUP9 AND DUP1 SWAP9 SUB PUSH2 0x414 JUMPI CALLER DUP11 MSTORE PUSH1 0x20 SWAP5 PUSH1 0x8 DUP7 MSTORE DUP5 PUSH1 0x40 DUP13 KECCAK256 SLOAD AND ISZERO PUSH2 0x119D JUMPI PUSH2 0xFB7 PUSH1 0x4 SLOAD DUP12 LT PUSH2 0x1997 JUMP JUMPDEST DUP10 DUP12 MSTORE PUSH1 0x5 DUP7 MSTORE PUSH1 0x40 DUP12 KECCAK256 SWAP2 PUSH1 0x4 DUP4 ADD SWAP6 DUP7 SLOAD SWAP6 DUP2 DUP8 AND PUSH1 0xA DUP2 LT ISZERO PUSH2 0x1189 JUMPI PUSH1 0x1 SUB PUSH2 0x114B JUMPI PUSH1 0x3 GT PUSH2 0x1106 JUMPI DUP5 ISZERO SWAP2 DUP3 ISZERO SWAP12 DUP13 PUSH2 0x10C5 JUMPI JUMPDEST POP POP POP ISZERO PUSH2 0x1080 JUMPI SWAP2 DUP8 PUSH1 0xC PUSH1 0x60 SWAP10 SWAP8 SWAP6 SWAP4 PUSH32 0xE369D4592EA59E607966F14A4AA7BC01A893AD48820C8326005DE63EF6B5F0E8 SWAP12 SWAP10 SWAP8 SWAP6 PUSH1 0xA4 CALLDATALOAD PUSH1 0xA DUP4 ADD SSTORE PUSH1 0xB DUP3 ADD SWAP1 DUP10 PUSH2 0xFF00 DUP4 SLOAD SWAP3 PUSH1 0x8 SHL AND SWAP2 PUSH2 0xFFFF NOT AND OR OR SWAP1 SSTORE ADD SSTORE PUSH1 0x0 EQ PUSH2 0x1072 JUMPI POP DUP1 SLOAD PUSH1 0xFF NOT AND PUSH1 0x2 OR SWAP1 SSTORE JUMPDEST PUSH1 0x40 MLOAD SWAP4 DUP5 MSTORE DUP4 ADD MSTORE PUSH1 0x40 DUP3 ADD MSTORE LOG2 DUP1 RETURN JUMPDEST PUSH1 0xFF NOT AND PUSH1 0x3 OR SWAP1 SSTORE PUSH2 0x1060 JUMP JUMPDEST PUSH1 0x40 MLOAD PUSH3 0x461BCD PUSH1 0xE5 SHL DUP2 MSTORE PUSH1 0x4 DUP2 ADD DUP8 SWAP1 MSTORE PUSH1 0x1F PUSH1 0x24 DUP3 ADD MSTORE PUSH32 0x416964436861696E3A2073757065726D616A6F72697479206E6F74206D657400 PUSH1 0x44 DUP3 ADD MSTORE PUSH1 0x64 SWAP1 REVERT JUMPDEST PUSH1 0x3 MUL SWAP2 DUP3 AND SWAP3 POP SWAP1 DUP3 SUB PUSH2 0x10F0 JUMPI PUSH1 0x1 SHL SWAP1 PUSH2 0x1FE PUSH1 0xFE DUP4 AND SWAP3 AND DUP3 SUB PUSH2 0x10F0 JUMPI GT CODESIZE DUP1 DUP1 PUSH2 0xFF1 JUMP JUMPDEST PUSH4 0x4E487B71 PUSH1 0xE0 SHL PUSH1 0x0 MSTORE PUSH1 0x11 PUSH1 0x4 MSTORE PUSH1 0x24 PUSH1 0x0 REVERT JUMPDEST PUSH1 0x40 MLOAD PUSH3 0x461BCD PUSH1 0xE5 SHL DUP2 MSTORE PUSH1 0x4 DUP2 ADD DUP10 SWAP1 MSTORE PUSH1 0x1C PUSH1 0x24 DUP3 ADD MSTORE PUSH32 0x416964436861696E3A20696E73756666696369656E74206E6F64657300000000 PUSH1 0x44 DUP3 ADD MSTORE PUSH1 0x64 SWAP1 REVERT JUMPDEST PUSH1 0x40 MLOAD PUSH3 0x461BCD PUSH1 0xE5 SHL DUP2 MSTORE PUSH1 0x4 DUP2 ADD DUP11 SWAP1 MSTORE PUSH1 0x16 PUSH1 0x24 DUP3 ADD MSTORE PUSH22 0x105A5910DA185A5B8E881B9BDD081D995C9A599A5959 PUSH1 0x52 SHL PUSH1 0x44 DUP3 ADD MSTORE PUSH1 0x64 SWAP1 REVERT JUMPDEST PUSH4 0x4E487B71 PUSH1 0xE0 SHL DUP16 MSTORE PUSH1 0x21 PUSH1 0x4 MSTORE PUSH1 0x24 DUP16 REVERT JUMPDEST PUSH1 0x40 MLOAD PUSH3 0x461BCD PUSH1 0xE5 SHL DUP2 MSTORE PUSH1 0x4 DUP2 ADD DUP8 SWAP1 MSTORE PUSH1 0x1C PUSH1 0x24 DUP3 ADD MSTORE PUSH32 0x416964436861696E3A206E6F742070616E656C206F70657261746F7200000000 PUSH1 0x44 DUP3 ADD MSTORE PUSH1 0x64 SWAP1 REVERT JUMPDEST POP CALLVALUE PUSH2 0x419 JUMPI PUSH1 0x20 CALLDATASIZE PUSH1 0x3 NOT ADD SLT PUSH2 0x419 JUMPI PUSH1 0x20 SWAP1 PUSH1 0xFF SWAP1 PUSH1 0x40 SWAP1 PUSH1 0x1 PUSH1 0x1 PUSH1 0xA0 SHL SUB PUSH2 0x120D PUSH2 0x18BE JUMP JUMPDEST AND DUP2 MSTORE PUSH1 0x8 DUP5 MSTORE KECCAK256 SLOAD AND PUSH1 0x40 MLOAD SWAP1 ISZERO ISZERO DUP2 MSTORE RETURN JUMPDEST POP CALLVALUE PUSH2 0x419 JUMPI PUSH1 0x80 CALLDATASIZE PUSH1 0x3 NOT ADD SLT PUSH2 0x419 JUMPI PUSH1 0x4 CALLDATALOAD PUSH1 0x24 CALLDATALOAD PUSH1 0x44 CALLDATALOAD SWAP1 PUSH2 0x1252 PUSH1 0x1 DUP1 PUSH1 0xA0 SHL SUB PUSH1 0x1 SLOAD AND CALLER EQ PUSH2 0x1954 JUMP JUMPDEST PUSH2 0x125F PUSH1 0x4 SLOAD DUP5 LT PUSH2 0x1997 JUMP JUMPDEST DUP3 DUP5 MSTORE PUSH1 0x5 PUSH1 0x20 MSTORE PUSH1 0x40 DUP5 KECCAK256 SWAP1 PUSH1 0x4 DUP3 ADD SWAP3 DUP4 SLOAD SWAP3 PUSH1 0xFF DUP5 AND PUSH1 0xA DUP2 LT ISZERO PUSH2 0x1319 JUMPI PUSH2 0x12DB JUMPI PUSH32 0xF8535BC67656FAF6D0225FFA12C783218410036CDBD245BD71CF8D0C1DCDF76E SWAP5 PUSH1 0x1 PUSH1 0x40 SWAP6 DUP6 PUSH1 0x6 DUP6 ADD SSTORE DUP5 PUSH1 0x7 DUP6 ADD SSTORE PUSH1 0x64 CALLDATALOAD PUSH1 0x8 DUP6 ADD SSTORE PUSH1 0xFF NOT AND OR SWAP1 SSTORE PUSH1 0x9 TIMESTAMP SWAP2 ADD SSTORE DUP3 MLOAD SWAP2 DUP3 MSTORE PUSH1 0x20 DUP3 ADD MSTORE LOG2 DUP1 RETURN JUMPDEST PUSH1 0x40 MLOAD PUSH3 0x461BCD PUSH1 0xE5 SHL DUP2 MSTORE PUSH1 0x20 PUSH1 0x4 DUP3 ADD MSTORE PUSH1 0x16 PUSH1 0x24 DUP3 ADD MSTORE PUSH22 0x416964436861696E3A2077726F6E6720737461747573 PUSH1 0x50 SHL PUSH1 0x44 DUP3 ADD MSTORE PUSH1 0x64 SWAP1 REVERT JUMPDEST PUSH4 0x4E487B71 PUSH1 0xE0 SHL DUP9 MSTORE PUSH1 0x21 PUSH1 0x4 MSTORE PUSH1 0x24 DUP9 REVERT JUMPDEST POP CALLVALUE PUSH2 0x419 JUMPI PUSH1 0x40 CALLDATASIZE PUSH1 0x3 NOT ADD SLT PUSH2 0x419 JUMPI PUSH1 0x1 PUSH1 0x1 PUSH1 0xA0 SHL SUB SWAP1 PUSH1 0x24 CALLDATALOAD DUP3 DUP2 AND SWAP1 PUSH1 0x4 CALLDATALOAD SWAP1 DUP3 SWAP1 SUB PUSH2 0xC22 JUMPI PUSH2 0x1369 DUP5 PUSH1 0x1 SLOAD AND CALLER EQ PUSH2 0x1954 JUMP JUMPDEST PUSH2 0x1376 PUSH1 0x4 SLOAD DUP3 LT PUSH2 0x1997 JUMP JUMPDEST DUP1 DUP4 MSTORE PUSH1 0x20 PUSH1 0x5 DUP2 MSTORE PUSH1 0x40 DUP5 KECCAK256 SWAP5 PUSH1 0x4 DUP7 ADD SWAP1 PUSH1 0xFF DUP3 SLOAD AND PUSH1 0xA DUP2 LT ISZERO PUSH2 0x981 JUMPI PUSH1 0x2 SUB PUSH2 0x14E0 JUMPI DUP5 DUP7 MSTORE PUSH1 0x7 DUP4 MSTORE PUSH1 0xFF PUSH1 0x40 DUP8 KECCAK256 SLOAD AND ISZERO PUSH2 0x149D JUMPI PUSH1 0x2 SLOAD AND SWAP6 PUSH1 0xC DUP2 ADD SWAP7 DUP8 SLOAD DUP2 EXTCODESIZE ISZERO PUSH2 0x1499 JUMPI DUP8 SWAP2 PUSH1 0x44 DUP4 SWAP3 PUSH1 0x40 MLOAD SWAP5 DUP6 SWAP4 DUP5 SWAP3 PUSH4 0xC4489903 PUSH1 0xE0 SHL DUP5 MSTORE DUP12 PUSH1 0x4 DUP6 ADD MSTORE PUSH1 0x24 DUP5 ADD MSTORE GAS CALL DUP1 ISZERO PUSH2 0x148E JUMPI PUSH2 0x1459 JUMPI JUMPDEST POP PUSH32 0xD9451E2944A83BD8FD81382A751F86E6C5C14BD1A483AB3C8AE38A903958EA78 SWAP4 SWAP5 SWAP6 SWAP7 PUSH1 0xD DUP3 ADD DUP8 PUSH12 0xFFFFFFFFFFFFFFFFFFFFFFFF PUSH1 0xA0 SHL DUP3 SLOAD AND OR SWAP1 SSTORE SLOAD SWAP2 DUP3 PUSH1 0xE DUP4 ADD SSTORE PUSH1 0x4 PUSH1 0xFF NOT DUP3 SLOAD AND OR SWAP1 SSTORE PUSH1 0xF TIMESTAMP SWAP2 ADD SSTORE PUSH1 0x40 MLOAD SWAP1 DUP2 MSTORE LOG3 DUP1 RETURN JUMPDEST SWAP6 PUSH2 0x1486 PUSH32 0xD9451E2944A83BD8FD81382A751F86E6C5C14BD1A483AB3C8AE38A903958EA78 SWAP6 SWAP7 SWAP8 PUSH2 0x1A24 JUMP JUMPDEST SWAP6 SWAP5 SWAP4 PUSH2 0x13F5 JUMP JUMPDEST PUSH1 0x40 MLOAD RETURNDATASIZE DUP10 DUP3 RETURNDATACOPY RETURNDATASIZE SWAP1 REVERT JUMPDEST DUP8 DUP1 REVERT JUMPDEST PUSH1 0x64 DUP4 PUSH1 0x40 MLOAD SWAP1 PUSH3 0x461BCD PUSH1 0xE5 SHL DUP3 MSTORE DUP1 PUSH1 0x4 DUP4 ADD MSTORE PUSH1 0x24 DUP3 ADD MSTORE PUSH32 0x416964436861696E3A2066756C66696C6C6572206E6F7420617070726F766564 PUSH1 0x44 DUP3 ADD MSTORE REVERT JUMPDEST PUSH1 0x40 MLOAD PUSH3 0x461BCD PUSH1 0xE5 SHL DUP2 MSTORE PUSH1 0x4 DUP2 ADD DUP5 SWAP1 MSTORE PUSH1 0x16 PUSH1 0x24 DUP3 ADD MSTORE PUSH22 0x105A5910DA185A5B8E881B9BDD08185C1C1C9BDD9959 PUSH1 0x52 SHL PUSH1 0x44 DUP3 ADD MSTORE PUSH1 0x64 SWAP1 REVERT JUMPDEST POP CALLVALUE PUSH2 0x419 JUMPI PUSH1 0x80 CALLDATASIZE PUSH1 0x3 NOT ADD SLT PUSH2 0x419 JUMPI PUSH1 0x4 CALLDATALOAD PUSH1 0x24 CALLDATALOAD PUSH2 0x153E PUSH2 0x1911 JUMP JUMPDEST SWAP1 PUSH2 0x1547 PUSH2 0x1921 JUMP JUMPDEST SWAP1 PUSH2 0x1555 PUSH1 0x4 SLOAD DUP6 LT PUSH2 0x1997 JUMP JUMPDEST DUP4 DUP6 MSTORE PUSH1 0x5 PUSH1 0x20 MSTORE PUSH1 0x40 DUP6 KECCAK256 PUSH1 0x4 DUP2 ADD DUP1 SLOAD SWAP5 PUSH1 0xFF DUP7 AND PUSH1 0xA DUP2 LT ISZERO PUSH2 0x1695 JUMPI PUSH1 0x4 SUB PUSH2 0x1659 JUMPI PUSH1 0xD DUP4 ADD SLOAD PUSH1 0x1 PUSH1 0x1 PUSH1 0xA0 SHL SUB AND CALLER SUB PUSH2 0x1615 JUMPI PUSH32 0xE556953B59C2418C78D3D4ED740E0887AABEB31533BDED7677D7B9C20F7C1E71 SWAP6 PUSH1 0x20 SWAP6 PUSH1 0x5 SWAP3 DUP7 PUSH1 0x10 DUP8 ADD SSTORE PUSH1 0x11 DUP7 ADD SWAP2 PUSH8 0xFFFFFFFFFFFFFFFF DUP4 SLOAD SWAP2 PUSH1 0x40 SHL PUSH16 0xFFFFFFFFFFFFFFFF0000000000000000 AND SWAP3 AND SWAP1 PUSH16 0xFFFFFFFFFFFFFFFFFFFFFFFFFFFFFFFF NOT AND OR OR SWAP1 SSTORE PUSH1 0xFF NOT AND OR SWAP1 SSTORE PUSH1 0x12 TIMESTAMP SWAP2 ADD SSTORE PUSH1 0x40 MLOAD SWAP1 DUP2 MSTORE LOG2 DUP1 RETURN JUMPDEST PUSH1 0x64 PUSH1 0x40 MLOAD PUSH3 0x461BCD PUSH1 0xE5 SHL DUP2 MSTORE PUSH1 0x20 PUSH1 0x4 DUP3 ADD MSTORE PUSH1 0x20 PUSH1 0x24 DUP3 ADD MSTORE PUSH32 0x416964436861696E3A206E6F742061737369676E65642066756C66696C6C6572 PUSH1 0x44 DUP3 ADD MSTORE REVERT JUMPDEST PUSH1 0x40 MLOAD PUSH3 0x461BCD PUSH1 0xE5 SHL DUP2 MSTORE PUSH1 0x20 PUSH1 0x4 DUP3 ADD MSTORE PUSH1 0x14 PUSH1 0x24 DUP3 ADD MSTORE PUSH20 0x105A5910DA185A5B8E881B9BDD08199D5B991959 PUSH1 0x62 SHL PUSH1 0x44 DUP3 ADD MSTORE PUSH1 0x64 SWAP1 REVERT JUMPDEST PUSH4 0x4E487B71 PUSH1 0xE0 SHL DUP10 MSTORE PUSH1 0x21 PUSH1 0x4 MSTORE PUSH1 0x24 DUP10 REVERT JUMPDEST POP CALLVALUE PUSH2 0x419 JUMPI PUSH1 0x40 CALLDATASIZE PUSH1 0x3 NOT ADD SLT PUSH2 0x419 JUMPI PUSH2 0x16C3 PUSH2 0x18BE JUMP JUMPDEST PUSH32 0xEEEF5A42658FC702BA7E3961561B1D5AA6E6817B1FAEA1B099913F5C936A0B4C PUSH1 0x20 PUSH2 0x16EE PUSH2 0x1902 JUMP JUMPDEST DUP5 SLOAD SWAP1 SWAP4 PUSH1 0x1 PUSH1 0x1 PUSH1 0xA0 SHL SUB SWAP2 PUSH2 0x1708 SWAP1 DUP4 AND CALLER EQ PUSH2 0x19E2 JUMP JUMPDEST AND SWAP3 DUP4 DUP6 MSTORE PUSH1 0x7 DUP3 MSTORE PUSH2 0x172A DUP2 PUSH1 0x40 DUP8 KECCAK256 SWAP1 PUSH1 0xFF DUP1 NOT DUP4 SLOAD AND SWAP2 ISZERO ISZERO AND OR SWAP1 SSTORE JUMP JUMPDEST PUSH1 0x40 MLOAD SWAP1 ISZERO ISZERO DUP2 MSTORE LOG2 DUP1 RETURN JUMPDEST POP CALLVALUE PUSH2 0x419 JUMPI PUSH1 0x60 CALLDATASIZE PUSH1 0x3 NOT ADD SLT PUSH2 0x419 JUMPI PUSH1 0x4 CALLDATALOAD PUSH2 0x1753 PUSH2 0x1902 JUMP JUMPDEST PUSH1 0x44 CALLDATALOAD SWAP1 PUSH2 0x176C PUSH1 0x1 DUP1 PUSH1 0xA0 SHL SUB PUSH1 0x1 SLOAD AND CALLER EQ PUSH2 0x1954 JUMP JUMPDEST PUSH2 0x1779 PUSH1 0x4 SLOAD DUP5 LT PUSH2 0x1997 JUMP JUMPDEST DUP3 DUP5 MSTORE PUSH1 0x5 PUSH1 0x20 MSTORE PUSH1 0x40 DUP5 KECCAK256 SWAP1 PUSH1 0x4 DUP3 ADD SWAP3 DUP4 SLOAD SWAP4 PUSH1 0xFF DUP6 AND PUSH1 0xA DUP2 LT ISZERO PUSH2 0x1319 JUMPI PUSH1 0x5 SUB PUSH2 0x17FF JUMPI PUSH32 0x1070AC3C65C08C451D7821FDAAE7A88A75518AC10ED46782FF81505F1A03552D SWAP5 DUP3 PUSH1 0x13 PUSH1 0x40 SWAP7 ADD SSTORE DUP4 PUSH1 0x0 EQ PUSH2 0x17F1 JUMPI POP DUP1 SLOAD PUSH1 0xFF NOT AND PUSH1 0x6 OR SWAP1 SSTORE JUMPDEST DUP3 MLOAD SWAP2 ISZERO ISZERO DUP3 MSTORE PUSH1 0x20 DUP3 ADD MSTORE LOG2 DUP1 RETURN JUMPDEST PUSH1 0xFF NOT AND PUSH1 0x7 OR SWAP1 SSTORE PUSH2 0x17E1 JUMP JUMPDEST PUSH1 0x64 PUSH1 0x40 MLOAD PUSH3 0x461BCD PUSH1 0xE5 SHL DUP2 MSTORE PUSH1 0x20 PUSH1 0x4 DUP3 ADD MSTORE PUSH1 0x20 PUSH1 0x24 DUP3 ADD MSTORE PUSH32 0x416964436861696E3A2064656C6976657279206E6F74207375626D6974746564 PUSH1 0x44 DUP3 ADD MSTORE REVERT JUMPDEST POP CALLVALUE PUSH2 0x419 JUMPI PUSH1 0x40 CALLDATASIZE PUSH1 0x3 NOT ADD SLT PUSH2 0x419 JUMPI PUSH2 0x185D PUSH2 0x18BE JUMP JUMPDEST PUSH1 0x1 PUSH1 0x1 PUSH1 0xA0 SHL SUB AND DUP2 MSTORE PUSH1 0x6 PUSH1 0x20 MSTORE PUSH1 0x40 DUP2 KECCAK256 DUP1 SLOAD PUSH1 0x24 CALLDATALOAD SWAP3 SWAP1 DUP4 LT ISZERO PUSH2 0x419 JUMPI PUSH1 0x20 PUSH2 0x188B DUP5 DUP5 PUSH2 0x18D4 JUMP JUMPDEST SWAP1 SLOAD PUSH1 0x40 MLOAD SWAP2 PUSH1 0x3 SHL SHR DUP2 MSTORE RETURN JUMPDEST SWAP1 POP CALLVALUE PUSH2 0xA43 JUMPI DUP2 PUSH1 0x3 NOT CALLDATASIZE ADD SLT PUSH2 0xA43 JUMPI PUSH1 0x1 SLOAD PUSH1 0x1 PUSH1 0x1 PUSH1 0xA0 SHL SUB AND DUP2 MSTORE PUSH1 0x20 SWAP1 RETURN JUMPDEST PUSH1 0x4 CALLDATALOAD SWAP1 PUSH1 0x1 PUSH1 0x1 PUSH1 0xA0 SHL SUB DUP3 AND DUP3 SUB PUSH2 0x414 JUMPI JUMP JUMPDEST DUP1 SLOAD DUP3 LT ISZERO PUSH2 0x18EC JUMPI PUSH1 0x0 MSTORE PUSH1 0x20 PUSH1 0x0 KECCAK256 ADD SWAP1 PUSH1 0x0 SWAP1 JUMP JUMPDEST PUSH4 0x4E487B71 PUSH1 0xE0 SHL PUSH1 0x0 MSTORE PUSH1 0x32 PUSH1 0x4 MSTORE PUSH1 0x24 PUSH1 0x0 REVERT JUMPDEST PUSH1 0x24 CALLDATALOAD SWAP1 DUP2 ISZERO ISZERO DUP3 SUB PUSH2 0x414 JUMPI JUMP JUMPDEST PUSH1 0x44 CALLDATALOAD SWAP1 DUP2 PUSH1 0x7 SIGNEXTEND DUP3 SUB PUSH2 0x414 JUMPI JUMP JUMPDEST PUSH1 0x64 CALLDATALOAD SWAP1 DUP2 PUSH1 0x7 SIGNEXTEND DUP3 SUB PUSH2 0x414 JUMPI JUMP JUMPDEST SWAP1 PUSH1 0xA DUP3 LT ISZERO PUSH2 0x193E JUMPI MSTORE JUMP JUMPDEST PUSH4 0x4E487B71 PUSH1 0xE0 SHL PUSH1 0x0 MSTORE PUSH1 0x21 PUSH1 0x4 MSTORE PUSH1 0x24 PUSH1 0x0 REVERT JUMPDEST ISZERO PUSH2 0x195B JUMPI JUMP JUMPDEST PUSH1 0x40 MLOAD PUSH3 0x461BCD PUSH1 0xE5 SHL DUP2 MSTORE PUSH1 0x20 PUSH1 0x4 DUP3 ADD MSTORE PUSH1 0x14 PUSH1 0x24 DUP3 ADD MSTORE PUSH20 0x416964436861696E3A206E6F74206F7261636C65 PUSH1 0x60 SHL PUSH1 0x44 DUP3 ADD MSTORE PUSH1 0x64 SWAP1 REVERT JUMPDEST ISZERO PUSH2 0x199E JUMPI JUMP JUMPDEST PUSH1 0x64 PUSH1 0x40 MLOAD PUSH3 0x461BCD PUSH1 0xE5 SHL DUP2 MSTORE PUSH1 0x20 PUSH1 0x4 DUP3 ADD MSTORE PUSH1 0x20 PUSH1 0x24 DUP3 ADD MSTORE PUSH32 0x416964436861696E3A207265717565737420646F6573206E6F74206578697374 PUSH1 0x44 DUP3 ADD MSTORE REVERT JUMPDEST ISZERO PUSH2 0x19E9 JUMPI JUMP JUMPDEST PUSH1 0x40 MLOAD PUSH3 0x461BCD PUSH1 0xE5 SHL DUP2 MSTORE PUSH1 0x20 PUSH1 0x4 DUP3 ADD MSTORE PUSH1 0x13 PUSH1 0x24 DUP3 ADD MSTORE PUSH19 0x20B4B221B430B4B71D103737BA1037BBB732B9 PUSH1 0x69 SHL PUSH1 0x44 DUP3 ADD MSTORE PUSH1 0x64 SWAP1 REVERT JUMPDEST PUSH8 0xFFFFFFFFFFFFFFFF DUP2 GT PUSH2 0x1A38 JUMPI PUSH1 0x40 MSTORE JUMP JUMPDEST PUSH4 0x4E487B71 PUSH1 0xE0 SHL PUSH1 0x0 MSTORE PUSH1 0x41 PUSH1 0x4 MSTORE PUSH1 0x24 PUSH1 0x0 REVERT JUMPDEST PUSH2 0x340 DUP2 ADD SWAP1 DUP2 LT PUSH8 0xFFFFFFFFFFFFFFFF DUP3 GT OR PUSH2 0x1A38 JUMPI PUSH1 0x40 MSTORE JUMP JUMPDEST SWAP1 PUSH1 0x1F DUP1 NOT SWAP2 ADD AND DUP2 ADD SWAP1 DUP2 LT PUSH8 0xFFFFFFFFFFFFFFFF DUP3 GT OR PUSH2 0x1A38 JUMPI PUSH1 0x40 MSTORE JUMP INVALID LOG2 PUSH5 0x6970667358 0x22 SLT KECCAK256 0xBB 0xD6 PUSH17 0x771D266BC87EE37A967D3DE32DF31519CD STATICCALL 0x24 0xDD 0xF7 PUSH16 0x5E1BCF1F586CA264736F6C6343000818 STOP CALLER "},"methodIdentifiers":{"aidRequests(uint256)":"5d2ea0ca","approvedFulfillers(address)":"c4098ef5","approvedPanelOperators(address)":"4a80c6f3","assignFulfiller(uint256,address)":"4089ac18","confirmDelivery(uint256,bytes32,int64,int64)":"3aceba76","fundPool()":"70f37d27","getRequest(uint256)":"c58343ef","getRequestCount()":"3fad1834","getUserRequests(address)":"b337cf74","nextRequestId()":"6a84a985","oracleOperator()":"11679ef7","owner()":"8da5cb5b","releasePayout(uint256)":"bf43e856","requestAid(uint8,uint8,int64,int64,bytes32)":"fb0daadd","setFulfiller(address,bool)":"38048cbc","setOracleOperator(address)":"ae2ad111","setPanelOperator(address,bool)":"a3183182","submitConsensus(uint256,bool,uint8,uint8,uint256,bytes32,uint8,uint8)":"5411b58d","timeoutRequest(uint256)":"7df29c71","userRequests(address,uint256)":"263cb6b6","verificationRegistry()":"efa4f8d4","verifyDelivery(uint256,bool,bytes32)":"3458dfb3","verifyRequest(uint256,bytes32,bytes32,bytes32)":"43591494"}}}}}